:100000000C942A000C94BF080C9447000C944700F1
:100010000C9447000C9447000C944C070C94470038
:100020000C9447000C941F070C9441060C94140682
:100030000C9447000C9447000C9447000C94470024
:100040000C9447000C9447000C9447000C94470014
:100050000C94470011241FBECFE5D8E0DEBFCDBF12
:1000600010E0A0E6B0E0E6E0F8E402C005900D92F2
:10007000AC39B107D9F710E0ACE9B0E001C01D928E
:10008000A53AB107E1F70E9433200C9401240C94A7
:100090000000EF92FF920F931F937B018C0120E0F1
:1000A00030E040E05FE40E94490388238CF0C801FF
:1000B000B70120E030E040E05FE40E94C1010E940F
:1000C000A9039B01AC01205030404040504806C07D
:1000D000C801B7010E94A9039B01AC01B901CA0183
:1000E0001F910F91FF90EF900895A0E0B0E0EBE733
:1000F000F0E00C94CA23DC012B01FA019C919230B0
:1001000008F439C1EB018881823008F433C194309E
:1001100069F4843009F02FC111969C91119789815F
:10012000981709F428C1A3E8B0E025C1843009F488
:1001300021C18230A9F4923009F01DC19A01AD01AC
:1001400088E0EA010990AE01E90109929E0181501F
:10015000C1F7E201898111969C918923818308C1AD
:10016000923009F407C112962D903C901397EB0141
:100170008A819B811496AD90BD90CD90DC901797AD
:10018000EC80FD800E811F819101281B390BB90184
:1001900037FF04C066277727621B730B6032710537
:1001A0000CF061C0121613066CF537014801062EDB
:1001B00004C096948794779467940A94D2F721E0C8
:1001C00030E040E050E004C0220F331F441F551FB1
:1001D0006A95D2F721503040404050402E213F21B7
:1001E00040235123211531054105510521F021E01E
:1001F00030E040E050E079018A01E628F72808293C
:1002000019293CC0232BD1F1260E371E350146019A
:10021000062E04C096948794779467940A94D2F734
:1002200021E030E040E050E004C0220F331F441FC3
:10023000551F6A95D2F721503040404050402A2146
:100240003B214C215D21211531054105510521F04E
:1002500021E030E040E050E059016A01A628B728CB
:10026000C828D9280BC0821593052CF01C01AA249C
:10027000BB24650103C0EE24FF24870111969C91E5
:10028000D20111968C91981709F445C0992339F041
:10029000A80197012A193B094C095D0906C0A6016E
:1002A00095012E193F09400B510B57FD08C01182D3
:1002B0003382228224833583468357831DC081E0A5
:1002C00081833382228288279927DC01821B930B4A
:1002D000A40BB50B84839583A683B7830DC0220F2F
:1002E000331F441F551F24833583468357838281E0
:1002F000938101979383828324813581468157813D
:10030000DA01C9010197A109B1098F5F9F4FAF4F72
:10031000BF4328F30BC0918333822282EA0CFB1C7B
:100320000C1D1D1DE482F5820683178383E0808304
:10033000248135814681578157FF1AC0C901AA27F8
:1003400097FDA095BA2F81709070A070B0705695EF
:10035000479537952795822B932BA42BB52B848318
:100360009583A683B7838281938101969383828349
:10037000DF0101C0D201CD01CDB7DEB7E2E10C94BF
:10038000E623A0E2B0E0E7ECF1E00C94D623698329
:100390007A838B839C832D833E834F835887E9E048
:1003A000EE2EF12CEC0EFD1ECE010196B7010E943F
:1003B000D2048E010F5E1F4FCE010596B8010E9438
:1003C000D2048A8991E089278A8BC701B801AE01DE
:1003D000475E5F4F0E9475000E94FD03A096E6E015
:1003E0000C94F223A0E2B0E0E8EFF1E00C94D62305
:1003F00069837A838B839C832D833E834F835887C5
:10040000F9E0EF2EF12CEC0EFD1ECE010196B701A6
:100410000E94D2048E010F5E1F4FCE010596B801D7
:100420000E94D204C701B801AE01475E5F4F0E942F
:1004300075000E94FD03A096E6E00C94F223A0E272
:10044000B0E0E5E2F2E00C94CA2369837A838B83FF
:100450009C832D833E834F835887CE010196BE0136
:10046000675F7F4F0E94D204CE010596BE016F5E8A
:100470007F4F0E94D2049985923088F0898982301A
:10048000C8F0943019F4823051F404C0843029F457
:10049000923081F483E890E0C6C0923049F420E0C5
:1004A0009A858A89981321E02A87CE010996BBC0D4
:1004B000823049F420E09A858A89981321E02A8BBA
:1004C000CE014196B0C02D843E844F8458886D88FB
:1004D0007E888F88988CEE24FF248701AA24BB2471
:1004E000650140E050E060E070E0E0E0F0E0C10174
:1004F00081709070892BE9F0E60CF71C081D191D1E
:100500009A01AB012A0D3B1D4C1D5D1D80E090E062
:10051000A0E0B0E0E614F7040805190520F481E036
:1005200090E0A0E0B0E0BA01A901480F591F6A1F8E
:100530007B1FAA0CBB1CCC1CDD1C97FE08C081E0F5
:1005400090E0A0E0B0E0A82AB92ACA2ADB2A3196B6
:10055000E032F10549F0660C771C881C991C569412
:10056000479437942794C3CFFA85EA892B893C892D
:100570008B859C85280F391F2E5F3F4F17C0CA01FE
:1005800081709070892B61F016950795F794E79428
:1005900080E090E0A0E0B0E8E82AF92A0A2B1B2BC3
:1005A00076956795579547952F5F3F4F77FDE7CF36
:1005B0000CC0440F551F661F771F17FD4160EE0CDE
:1005C000FF1C001F111F21503040403090E05907A0
:1005D00090E0690790E4790760F32B8F3C8FDB0193
:1005E000CA018F779070A070B07080349105A1051A
:1005F000B10561F447FD0AC0E114F10401051105DC
:1006000029F0405C5F4F6F4F7F4F40781A8EFE1786
:1006100011F081E08A8F4D8F5E8F6F8F78A383E01A
:10062000898FCE0149960E94FD03A096E2E10C94C9
:10063000E623A8E1B0E0EFE1F3E00C94D623698370
:100640007A838B839C832D833E834F83588789E0F5
:10065000E82EF12CEC0EFD1ECE010196B7010E9492
:10066000D2048E010F5E1F4FCE010596B8010E9485
:10067000D2048985823040F08989823028F0C70110
:10068000B8010E944A0501C08FEF6896E6E00C941D
:10069000F223A8E1B0E0EFE4F3E00C94D623698301
:1006A0007A838B839C832D833E834F83588789E095
:1006B000E82EF12CEC0EFD1ECE010196B7010E9432
:1006C000D2048E010F5E1F4FCE010596B8010E9425
:1006D000D2048985823040F08989823028F0C701B0
:1006E000B8010E944A0501C08FEF6896E6E00C94BD
:1006F000F223A8E1B0E0EFE7F3E00C94D62369839E
:100700007A838B839C832D833E834F83588789E034
:10071000E82EF12CEC0EFD1ECE010196B7010E94D1
:10072000D2048E010F5E1F4FCE010596B8010E94C4
:10073000D2048985823040F08989823028F0C7014F
:10074000B8010E944A0501C081E06896E6E00C9479
:10075000F223ACE0B0E0EFEAF3E00C94DA23698333
:100760007A838B839C83CE010196BE016B5F7F4FA2
:100770000E94D2048D81823061F1823050F1843048
:1007800021F48E81882351F12EC02F81388537FDC9
:1007900020C06E812F3131051CF06623F9F023C093
:1007A0008EE190E0821B930B29853A854B855C8511
:1007B00004C056954795379527958A95D2F76623B5
:1007C000B1F050954095309521953F4F4F4F5F4F79
:1007D0000EC020E030E040E050E009C02FEF3FEFD6
:1007E0004FEF5FE704C020E030E040E050E8B9019F
:1007F000CA012C96E2E00C94F623DF92EF92FF926E
:100800000F931F93FC01E480F58006811781D1804E
:100810008081823048F480E090E0A0E1B0E0E82AF6
:10082000F92A0A2B1B2BA5C0843009F49FC0823003
:1008300021F4EE24FF24870105C0E114F104010531
:10084000110519F4E0E0F0E096C0628173819FEF3A
:10085000623879070CF05BC022E83FEF261B370BAC
:100860002A3131052CF020E030E040E050E02AC091
:10087000B801A701022E04C0769567955795479554
:100880000A94D2F781E090E0A0E0B0E004C0880FC5
:10089000991FAA1FBB1F2A95D2F70197A109B10979
:1008A0008E219F21A023B1230097A105B10521F03E
:1008B00081E090E0A0E0B0E09A01AB01282B392B59
:1008C0004A2B5B2BDA01C9018F779070A070B07052
:1008D00080349105A105B10539F427FF09C0205CDA
:1008E0003F4F4F4F5F4F04C0215C3F4F4F4F5F4F13
:1008F000E0E0F0E02030A0E03A07A0E04A07A0E402
:100900005A0710F0E1E0F0E079018A0127C0603871
:10091000710564F5FB01E158FF4FD801C7018F77DE
:100920009070A070B07080349105A105B10539F4C4
:10093000E7FE0DC080E490E0A0E0B0E004C08FE3EB
:1009400090E0A0E0B0E0E80EF91E0A1F1B1F17FFA1
:1009500005C016950795F794E794319687E01695AC
:100960000795F794E7948A95D1F705C0EE24FF2404
:100970008701EFEFF0E06E2F679566276795902F60
:100980009F77D794DD24D7948E2F8695492F462BB9
:10099000582F5D29B701CA011F910F91FF90EF9069
:1009A000DF900895FC01DB01408151812281622F9B
:1009B0006F7770E0221F2227221F9381892F880FD3
:1009C000822B282F30E0991F9927991F11969C930D
:1009D000119721153105A9F54115510561057105DD
:1009E00011F482E037C082E89FEF13969C938E93B8
:1009F00012979A01AB0167E0220F331F441F551F66
:100A00006A95D1F783E08C930DC0220F331F441FEA
:100A1000551F12968D919C911397019713969C9355
:100A20008E931297203080E0380780E0480780E4FA
:100A3000580758F314962D933D934D935C93179755
:100A400008952F3F310579F4411551056105710570
:100A500019F484E08C93089564FF03C081E08C93C3
:100A600012C01C9210C02F57304013963C932E9307
:100A7000129783E08C9387E0440F551F661F771F02
:100A80008A95D1F7706414964D935D936D937C9322
:100A9000179708951F93DC01FB019C91923008F495
:100AA00047C08081823008F443C0943051F41196DD
:100AB0001C91843099F58181682F70E0611B710968
:100AC0003FC0843021F0923031F48230B9F181811D
:100AD000882389F12DC011961C9111978230F1F075
:100AE00081811817D9F412962D913C911397828128
:100AF00093818217930794F028173907BCF0149656
:100B00008D919D910D90BC91A02D248135814681C0
:100B10005781281739074A075B0718F4112341F05A
:100B20000AC082179307A407B50740F4112319F0F0
:100B300061E070E005C06FEF7FEF02C060E070E041
:100B4000CB011F910895DF93CF93CDB7DEB7A3E517
:100B5000B0E0E3E5F0E08081887F8C93A3E5B0E02E
:100B6000E3E5F0E0808183608C93A3E5B0E0E3E50A
:100B7000F0E0808180648C93A3E5B0E0E3E5F0E0F1
:100B80008081877F8C93A3E5B0E0E3E5F0E080818E
:100B900080628C93A3E5B0E0E3E5F0E080818F7E96
:100BA0008C93CF91DF910895DF93CF930F92CDB7C0
:100BB000DEB78983E2E5F0E0898180830F90CF91F1
:100BC000DF910895DF93CF930F92CDB7DEB789837E
:100BD000ECE5F0E0898180830F90CF91DF9108955B
:100BE000DF93CF9300D0CDB7DEB79A838983898115
:100BF0009A8190939E0080939D000F900F90CF91CB
:100C0000DF910895DF93CF9300D0CDB7DEB79A83FD
:100C1000898389819A8190939E0080939D000F9093
:100C20000F90CF91DF9108951F920F920FB60F9200
:100C300011242F933F934F935F936F937F938F93E1
:100C40009F93AF93BF93EF93FF93DF93CF93CDB772
:100C5000DEB7E0919D00F0919E000995CF91DF9164
:100C6000FF91EF91BF91AF919F918F917F916F9184
:100C70005F914F913F912F910F900FBE0F901F905A
:100C800018951F920F920FB60F9211242F933F9336
:100C90004F935F936F937F938F939F93AF93BF9384
:100CA000EF93FF93DF93CF93CDB7DEB7E0919D0035
:100CB000F0919E000995CF91DF91FF91EF91BF9147
:100CC000AF919F918F917F916F915F914F913F91E4
:100CD0002F910F900FBE0F901F901895DF93CF9319
:100CE000CDB7DEB7AEE4B0E0EEE4F0E08081887F1F
:100CF0008C93AEE4B0E0EEE4F0E0808181608C9310
:100D0000AEE4B0E0EEE4F0E080818F7E8C93AEE460
:100D1000B0E0EEE4F0E08081877F8C93AFE4B0E058
:100D2000EFE4F0E080818D7F8C93AFE4B0E0EFE4FE
:100D3000F0E080818E7F8C93A9E5B0E0E9E5F0E0FA
:100D4000808184608C93A9E5B0E0E9E5F0E08081E2
:100D500080628C93AEE4B0E0EEE4F0E080818064E9
:100D60008C93CF91DF910895DF93CF9300D0CDB7CF
:100D7000DEB79A838983ECE4F0E089819A819183DC
:100D800080830F900F90CF91DF910895DF93CF93E1
:100D9000CDB7DEB7ECE4F0E080819181CF91DF91B7
:100DA0000895DF93CF93CDB7DEB7E6E4F0E080811E
:100DB0009181CF91DF910895DF93CF930F92CDB7BB
:100DC000DEB789838981882341F4AEE4B0E0EEE4A4
:100DD000F0E080818F7B8C930AC08981813039F467
:100DE000AEE4B0E0EEE4F0E0808180648C930F909C
:100DF000CF91DF910895DF93CF9300D0CDB7DEB7C9
:100E00009A83898389819A819093A00080939F001F
:100E10000F900F90CF91DF910895DF93CF9300D083
:100E2000CDB7DEB79A83898389819A819093A20096
:100E30008093A1000F900F90CF91DF9108951F92A2
:100E40000F920FB60F9211242F933F934F935F93FE
:100E50006F937F938F939F93AF93BF93EF93FF9382
:100E6000DF93CF93CDB7DEB7E0919F00F091A00064
:100E70000995CF91DF91FF91EF91BF91AF919F9134
:100E80008F917F916F915F914F913F912F910F9033
:100E90000FBE0F901F9018951F920F920FB60F92D2
:100EA00011242F933F934F935F936F937F938F936F
:100EB0009F93AF93BF93EF93FF93DF93CF93CDB700
:100EC000DEB7E091A100F091A2000995CF91DF91EA
:100ED000FF91EF91BF91AF919F918F917F916F9112
:100EE0005F914F913F912F910F900FBE0F901F90E8
:100EF0001895DF93CF93CDB7DEB7AFE5B0E0EFE560
:100F0000F0E0808180688C93CF91DF910895DF932A
:100F1000CF93CDB7DEB7AFE5B0E0EFE5F0E080818D
:100F20008F778C93CF91DF910895DF93CF93CDB7D7
:100F3000DEB7A5E5B0E0E5E5F0E0808181608C9367
:100F4000A5E5B0E0E5E5F0E0808182608C93ABE55B
:100F5000B0E0EBE5F0E0808180648C93CF91DF918D
:100F60000895DF93CF93CDB7DEB7A5E5B0E0E5E513
:100F7000F0E0808184608C93A5E5B0E0E5E5F0E0E9
:100F8000808188608C93ABE5B0E0EBE5F0E0808198
:100F900080688C93CF91DF910895DF93CF93CDB785
:100FA000DEB7A4E5B0E0E4E5F0E0808180648C93F6
:100FB000ABE5B0E0EBE5F0E0808180628C93CF910F
:100FC000DF910895DF93CF9300D000D0CDB7DEB787
:100FD00089836A838981282F30E03C832B838B812E
:100FE0009C818130910509F454C02B813C812230D1
:100FF000310509F496C08B819C81009709F0A6C049
:101000008A81882379F4A5E5B0E0E5E5F0E0808108
:101010008E7F8C93A5E5B0E0E5E5F0E080818D7FE3
:101020008C9394C08A81813079F4A5E5B0E0E5E540
:10103000F0E0808181608C93A5E5B0E0E5E5F0E02B
:1010400080818D7F8C9382C08A81823079F4A5E57E
:10105000B0E0E5E5F0E080818E7F8C93A5E5B0E01F
:10106000E5E5F0E0808182608C9370C08A818330F6
:1010700009F06CC0A5E5B0E0E5E5F0E080818160B5
:101080008C93A5E5B0E0E5E5F0E0808182608C938B
:101090005DC08A81882379F4A5E5B0E0E5E5F0E05C
:1010A00080818B7F8C93A5E5B0E0E5E5F0E0808161
:1010B000877F8C934BC08A81813079F4A5E5B0E0BD
:1010C000E5E5F0E0808184608C93A5E5B0E0E5E59E
:1010D000F0E08081877F8C9339C08A81823079F4F7
:1010E000A5E5B0E0E5E5F0E080818B7F8C93A5E598
:1010F000B0E0E5E5F0E0808188608C9327C08A81CC
:10110000833021F5A5E5B0E0E5E5F0E0808184607D
:101110008C93A5E5B0E0E5E5F0E0808188608C93F4
:1011200015C08A81823041F4A4E5B0E0E4E5F0E046
:1011300080818F7B8C930AC08A81833039F4A4E547
:10114000B0E0E4E5F0E0808180648C930F900F9034
:101150000F900F90CF91DF910895DF93CF9300D040
:10116000CDB7DEB79A83898389819A819093A40051
:101170008093A3000F900F90CF91DF9108951F925D
:101180000F920FB60F9211242F933F934F935F93BB
:101190006F937F938F939F93AF93BF93EF93FF933F
:1011A000DF93CF93CDB7DEB7E091A300F091A40019
:1011B0000995CF91DF91FF91EF91BF91AF919F91F1
:1011C0008F917F916F915F914F913F912F910F90F0
:1011D0000FBE0F901F901895DF93CF9300D000D0D3
:1011E00000D0CDB7DEB78A836B834C8381E08983DF
:1011F0008A81883008F0E8C08B81282F30E03E8358
:101200002D838D819E818130910509F448C02D8107
:101210003E81223031052CF48D819E81009771F042
:10122000D1C02D813E812230310509F469C08D8104
:101230009E818330910509F494C0C4C08C818130B3
:10124000A1F4AAE3B0E0EAE3F0E08081482F8A81CC
:10125000282F30E081E090E0022E02C0880F991F15
:101260000A94E2F7842B8C93B0C08C818823A9F474
:10127000AAE3B0E0EAE3F0E08081482F8A81282FDA
:1012800030E081E090E0022E02C0880F991F0A949E
:10129000E2F7809584238C9398C0198296C08C8144
:1012A0008130A1F4A7E3B0E0E7E3F0E08081482FCC
:1012B0008A81282F30E081E090E0022E02C0880F62
:1012C000991F0A94E2F7842B8C937FC08C8188232A
:1012D000A9F4A7E3B0E0E7E3F0E08081482F8A813A
:1012E000282F30E081E090E0022E02C0880F991F85
:1012F0000A94E2F7809584238C9367C0198265C0B5
:101300008C818130A1F4A4E3B0E0E4E3F0E08081DB
:10131000482F8A81282F30E081E090E0022E02C021
:10132000880F991F0A94E2F7842B8C934EC08C810E
:101330008823A9F4A4E3B0E0E4E3F0E08081482F3F
:101340008A81282F30E081E090E0022E02C0880FD1
:10135000991F0A94E2F7809584238C9336C01982F2
:1013600034C08C818130A1F4A1E3B0E0E1E3F0E08E
:101370008081482F8A81282F30E081E090E0022E82
:1013800002C0880F991F0A94E2F7842B8C931DC02A
:101390008C818823A9F4A1E3B0E0E1E3F0E080814F
:1013A000482F8A81282F30E081E090E0022E02C091
:1013B000880F991F0A94E2F7809584238C9305C0C7
:1013C000198203C0198201C01982898126960FB63D
:1013D000F894DEBF0FBECDBFCF91DF910895DF93AC
:1013E000CF9300D000D00F92CDB7DEB78A836B8346
:1013F00081E089838B818F3F19F08B818823A9F548
:101400008A81282F30E03D832C838C819D8181301F
:101410009105D1F02C813D81223031052CF48C8155
:101420009D81009761F01FC02C813D8122303105E4
:1014300081F08C819D818330910581F014C0EAE3B5
:10144000F0E08B81808312C0E7E3F0E08B81808342
:101450000DC0E4E3F0E08B81808308C0E1E3F0E0BD
:101460008B81808303C0198201C0198289810F900A
:101470000F900F900F900F90CF91DF910895DF9311
:10148000CF9300D000D000D0CDB7DEB78A836B8376
:101490004C8381E089838A81883008F0E8C08B81A1
:1014A000282F30E03E832D838D819E8181309105F0
:1014B00009F448C02D813E81223031052CF48D8104
:1014C0009E81009771F0D1C02D813E81223031057F
:1014D00009F469C08D819E818330910509F494C01F
:1014E000C4C08C818130A1F4ABE3B0E0EBE3F0E069
:1014F0008081482F8A81282F30E081E090E0022E01
:1015000002C0880F991F0A94E2F7842B8C93B0C015
:101510008C818823A9F4ABE3B0E0EBE3F0E08081B9
:10152000482F8A81282F30E081E090E0022E02C00F
:10153000880F991F0A94E2F7809584238C9398C0B2
:10154000198296C08C818130A1F4A8E3B0E0E8E371
:10155000F0E08081482F8A81282F30E081E090E000
:10156000022E02C0880F991F0A94E2F7842B8C93F5
:101570007FC08C818823A9F4A8E3B0E0E8E3F0E021
:101580008081482F8A81282F30E081E090E0022E70
:1015900002C0880F991F0A94E2F7809584238C93E8
:1015A00067C0198265C08C818130A1F4A5E3B0E0E9
:1015B000E5E3F0E08081482F8A81282F30E081E048
:1015C00090E0022E02C0880F991F0A94E2F7842B44
:1015D0008C934EC08C818823A9F4A5E3B0E0E5E3A9
:1015E000F0E08081482F8A81282F30E081E090E070
:1015F000022E02C0880F991F0A94E2F78095842377
:101600008C9336C0198234C08C818130A1F4A2E35E
:10161000B0E0E2E3F0E08081482F8A81282F30E0BB
:1016200081E090E0022E02C0880F991F0A94E2F731
:10163000842B8C931DC08C818823A9F4A2E3B0E095
:10164000E2E3F0E08081482F8A81282F30E081E0BA
:1016500090E0022E02C0880F991F0A94E2F780954D
:1016600084238C9305C0198203C0198201C019829A
:10167000898126960FB6F894DEBF0FBECDBFCF91FD
:10168000DF910895DF93CF9300D000D00F92CDB7B4
:10169000DEB78A836B8381E089838A81282F30E0DB
:1016A0003D832C838C819D8181309105D1F02C81EB
:1016B0003D81223031052CF48C819D81009761F0B1
:1016C0001FC02C813D812230310581F08C819D81AC
:1016D0008330910581F014C0EBE3F0E08B818083CF
:1016E00010C0E8E3F0E08B8180830BC0E5E3F0E01D
:1016F0008B81808306C0E2E3F0E08B81808301C0B0
:10170000198289810F900F900F900F900F90CF91B9
:10171000DF910895DF93CF93CDB7DEB727970FB64C
:10172000F894DEBF0FBECDBF8A836B835D834C838D
:1017300081E089838A81883008F079C08C819D811D
:101740008130910509F473C08B81282F30E03F83ED
:101750002E834E815F814130510559F18E819F81E9
:101760008230910534F42E813F812115310569F0D5
:101770005CC04E815F814230510579F18E819F813D
:101780008330910509F43DC050C0E9E3F0E0808169
:10179000282F30E08A81882F90E0A90102C055955A
:1017A00047958A95E2F7CA018170EC81FD818083BB
:1017B0003FC0E6E3F0E08081282F30E08A81882F67
:1017C00090E0A90102C0559547958A95E2F7CA01B4
:1017D0008170EC81FD8180832BC0E3E3F0E08081A8
:1017E000282F30E08A81882F90E0A90102C055950A
:1017F00047958A95E2F7CA018170EC81FD8180836B
:1018000017C0E0E3F0E08081282F30E08A81882F44
:1018100090E0A90102C0559547958A95E2F7CA0163
:101820008170EC81FD81808303C0198201C019821F
:10183000898127960FB6F894DEBF0FBECDBFCF913A
:10184000DF910895DF93CF9300D000D000D0CDB7C3
:10185000DEB78A836B834C8381E089838A818530FC
:1018600008F0C9C08B81282F30E03E832D836D8125
:101870007E816130710509F441C08D819E81823085
:10188000910534F42D813E812115310571F0B1C0EF
:101890006D817E816230710509F459C08D819E8110
:1018A0008330910509F47CC0A4C0ABE3B0E0EBE366
:1018B000F0E08081482F8A81282F30E08FE090E08F
:1018C00002C0880F991F2A95E2F7809584238C9394
:1018D000ABE3B0E0EBE3F0E08081482F8C81282F70
:1018E00030E08A81882F90E0B90102C0660F771F2F
:1018F0008A95E2F7CB01842B8C937EC0A8E3B0E0FD
:10190000E8E3F0E08081482F8A81282F30E08FE0E3
:1019100090E002C0880F991F2A95E2F780958423F2
:101920008C93A8E3B0E0E8E3F0E08081482F8C815D
:10193000282F30E08A81882F90E0B90102C0660F1D
:10194000771F8A95E2F7CB01842B8C9355C0A5E3D2
:10195000B0E0E5E3F0E08081482F8A81282F30E075
:101960008FE090E002C0880F991F2A95E2F78095DA
:1019700084238C93A5E3B0E0E5E3F0E08081482F79
:101980008C81282F30E08A81882F90E0B90102C035
:10199000660F771F8A95E2F7CB01842B8C932CC0BE
:1019A000A2E3B0E0E2E3F0E08081482F8A81282FB3
:1019B00030E08FE090E002C0880F991F2A95E2F78F
:1019C000809584238C93A2E3B0E0E2E3F0E0808191
:1019D000482F8C81282F30E08A81882F90E0B90130
:1019E00002C0660F771F8A95E2F7CB01842B8C9398
:1019F00003C0198201C01982898126960FB6F89416
:101A0000DEBF0FBECDBFCF91DF910895DF93CF939F
:101A100000D0CDB7DEB789836A8389816A8140E0CF
:101A20000E94EC0889816A8141E00E943F0A0F9080
:101A30000F90CF91DF910895DF93CF93CDB7DEB7AD
:101A4000A7E2B0E0E7E2F0E0808180648C93A7E257
:101A5000B0E0E7E2F0E080818F778C93A6E2B0E01F
:101A6000E6E2F0E08081887F8C93A6E2B0E0E6E2D7
:101A7000F0E0808181608C93A7E2B0E0E7E2F0E0E3
:101A800080818F7D8C93A6E2B0E0E6E2F0E0808179
:101A900080688C93CF91DF910895DF93CF930F925D
:101AA000CDB7DEB78983898187708983A7E2B0E0EB
:101AB000E7E2F0E08081807E8C93A7E2B0E0E7E28D
:101AC000F0E090818981892B8C93A6E2B0E0E6E278
:101AD000F0E0808180648C93E6E2F0E08081829582
:101AE0008F70882F90E0817090700097A9F3E4E2E6
:101AF000F0E0808191810F90CF91DF910895DF9385
:101B0000CF9300D0CDB7DEB79A838983E981FA817C
:101B10008181E981FA819081692F0E94060D0F90E1
:101B20000F90CF91DF910895DF93CF9300D00F9264
:101B3000CDB7DEB79B838A8381E08983EA81FB810D
:101B40008181EA81FB819081692F9E012F5F3F4F48
:101B5000A9010E948A0B89810F900F900F90CF915D
:101B6000DF910895DF93CF9300D0CDB7DEB79A838E
:101B70008983E981FA8180816FEF0E94EF090F90DC
:101B80000F90CF91DF910895DF93CF9300D00F9204
:101B9000CDB7DEB79A8389836B83E981FA8181812E
:101BA000813031F4E981FA8180816B810E94420B9E
:101BB000E981FA818181882351F4E981FA812081C8
:101BC0008B81982F9095822F692F0E94420B0F9046
:101BD0000F900F90CF91DF910895DF93CF93CDB702
:101BE000DEB727970FB6F894DEBF0FBECDBF9A833E
:101BF00089836B83E981FA818181813009F09BC0FF
:101C00008B81282F30E03F832E838E819F8184300B
:101C1000910509F45FC02E813F8125303105DCF448
:101C20008E819F818130910509F43FC02E813F81D3
:101C3000223031052CF48E819F81009779F174C098
:101C40002E813F8122303105B9F18E819F81833011
:101C50009105C9F169C02E813F812730310509F412
:101C60004EC08E819F81883091055CF42E813F812A
:101C700025303105B1F18E819F8186309105C1F10A
:101C800053C02E813F812830310509F43FC08E8139
:101C90009F818930910509F440C046C0E981FA81ED
:101CA00080816FE30E94420BE6C0E981FA81808166
:101CB00066E00E94420BDFC0E981FA8180816BE51A
:101CC0000E94420BD8C0E981FA8180816FE40E94B2
:101CD000420BD1C0E981FA81808166E60E94420B05
:101CE000CAC0E981FA8180816DE60E94420BC3C0BF
:101CF000E981FA8180816DE70E94420BBCC0E981D5
:101D0000FA81808167E00E94420BB5C0E981FA81C7
:101D100080816FE70E94420BAEC0E981FA81808129
:101D20006FE60E94420BA7C0E981FA81808169E7D2
:101D30000E94420BA0C0E981FA818181882309F0C9
:101D40009AC08B81282F30E03D832C838C819D812C
:101D50008430910509F45FC02C813D812530310527
:101D6000DCF48C819D818130910509F43FC02C8188
:101D70003D81223031052CF48C819D81009779F1D1
:101D800074C02C813D8122303105B9F18C819D8157
:101D900083309105C9F169C02C813D81273031051F
:101DA00009F44EC08C819D81883091055CF42C81B2
:101DB0003D8125303105B1F18C819D8186309105C1
:101DC000C1F153C02C813D812830310509F43FC059
:101DD0008C819D818930910509F440C046C0E9811C
:101DE000FA81808160EC0E94420B45C0E981FA8152
:101DF000808169EF0E94420B3EC0E981FA818081B7
:101E000064EA0E94420B37C0E981FA81808160EB6D
:101E10000E94420B30C0E981FA81808169E90E9409
:101E2000420B29C0E981FA81808162E90E94420B5C
:101E300022C0E981FA81808162E80E94420B1BC0C6
:101E4000E981FA81808168EF0E94420B14C0E98128
:101E5000FA81808160E80E94420B0DC0E981FA811D
:101E6000808160E90E94420B06C0E981FA8180818D
:101E700066E80E94420B27960FB6F894DEBF0FBEAD
:101E8000CDBFCF91DF910895DF93CF9300D0CDB731
:101E9000DEB79A838983E981FA818181E981FA81B8
:101EA0009081692F41E00E94EC080F900F90CF9134
:101EB000DF910895DF93CF9300D0CDB7DEB79A833B
:101EC0008983E981FA818181E981FA819081692F91
:101ED00041E00E943F0A0F900F90CF91DF9108954B
:101EE000DF93CF9300D0CDB7DEB79A838983E981A2
:101EF000FA818181E981FA819081692F40E00E9415
:101F00003F0A0F900F90CF91DF910895DF93CF9309
:101F100000D0CDB7DEB79A83898380919C00882357
:101F200071F4E981FA818181E981FA819081692FD7
:101F300041E00E943F0A81E080939C000CC0E9814F
:101F4000FA818181E981FA819081692F40E00E94C4
:101F50003F0A10929C000F900F90CF91DF9108954F
:101F6000DF93CF93CDB7DEB780E062E040E00E9420
:101F7000EC0881E062E040E00E94EC0882E062E070
:101F800040E00E94EC0883E062E040E00E94EC0840
:101F900084E062E041E00E94EC0885E062E041E01C
:101FA0000E94EC0886E062E041E00E94EC0887E0D5
:101FB00062E041E00E94EC0880E062E041E00E94C3
:101FC0003F0A81E062E041E00E943F0A82E062E075
:101FD00041E00E943F0A83E062E041E00E943F0A44
:101FE00084E062E041E00E943F0A85E062E041E077
:101FF0000E943F0A86E062E041E00E943F0A87E0DB
:1020000062E041E00E943F0ACF91DF910895DF93A3
:10201000CF93CDB7DEB762970FB6F894DEBF0FBE91
:10202000CDBF8FEF8F8784E0888BB5C0888962E051
:1020300040E00E943F0A198AA2C09E012E5E3F4FD7
:10204000898962E0A9010E948A0B8A89882309F0A4
:1020500093C08889882F90E0AC0144505040898912
:10206000282F30E0CA01880F991F880F991F820F0F
:10207000931FFC01E557FF4F80818F8708C09E01A9
:102080002E5E3F4F898962E0A9010E948A0B8A89EE
:102090008823A9F380E090E0A0E2B1E48B879C87DD
:1020A000AD87BE876B857C858D859E8520E030E081
:1020B0004AEF54E40E941F02DC01CB018F83988712
:1020C000A987BA876F81788589859A8520E030E075
:1020D00040E85FE30E94790388232CF481E090E0DC
:1020E0009E838D833FC06F81788589859A8520E0A6
:1020F0003FEF4FE757E40E94190318164CF56B8524
:102100007C858D859E8520E030E040E251E40E9490
:102110001F02DC01CB01BC01CD010E944900DC01A2
:10212000CB019E838D830FC088EC90E09C838B83D2
:102130008B819C810197F1F79C838B838D819E819C
:1021400001979E838D838D819E81009769F714C0CE
:102150006F81788589859A850E944900DC01CB01D1
:102160009E838D838D819E819A83898389819A81C3
:102170000197F1F79A83898389898F5F898B898990
:10218000843008F45ACF888962E041E00E943F0A17
:1021900088898F5F888B8889883008F447CF8F853E
:1021A0008F3F09F440CF8F8562960FB6F894DEBF5B
:1021B0000FBECDBFCF91DF910895DF93CF93CDB701
:1021C000DEB76D970FB6F894DEBF0FBECDBF8D8F13
:1021D00080E062E040E00E943F0A81E062E040E08F
:1021E0000E943F0A82E06D8D0E94420B82E062E015
:1021F00041E00E943F0A80E090E0A0E0B0E4898FD7
:102200009A8FAB8FBC8F698D7A8D8B8D9C8D20E0E2
:1022100030E04AEF54E40E941F02DC01CB018D8BB9
:102220009E8BAF8BB88F6D897E898F89988D20E0CA
:1022300030E040E85FE30E94790388232CF481E0DA
:1022400090E09C8B8B8B3FC06D897E898F89988DA8
:1022500020E03FEF4FE757E40E94190318164CF5B2
:10226000698D7A8D8B8D9C8D20E030E040E251E4C9
:102270000E941F02DC01CB01BC01CD010E9449007C
:10228000DC01CB019C8B8B8B0FC088EC90E09A8B90
:10229000898B89899A890197F1F79A8B898B8B8928
:1022A0009C8901979C8B8B8B8B899C89009769F704
:1022B00014C06D897E898F89988D0E944900DC0148
:1022C000CB019C8B8B8B8B899C89988B8F878F857F
:1022D00098890197F1F7988B8F8782E062E040E060
:1022E0000E943F0A80E090E0A0E0B0E48B879C87EA
:1022F000AD87BE876B857C858D859E8520E030E02F
:102300004AEF54E40E941F02DC01CB018F839887BF
:10231000A987BA876F81788589859A8520E030E022
:1023200040E85FE30E94790388232CF481E090E089
:102330009E838D833FC06F81788589859A8520E053
:102340003FEF4FE757E40E94190318164CF56B85D1
:102350007C858D859E8520E030E040E251E40E943E
:102360001F02DC01CB01BC01CD010E944900DC0150
:10237000CB019E838D830FC088EC90E09C838B8380
:102380008B819C810197F1F79C838B838D819E814A
:1023900001979E838D838D819E81009769F714C07C
:1023A0006F81788589859A850E944900DC01CB017F
:1023B0009E838D838D819E819A83898389819A8171
:1023C0000197F1F79A83898382E062E041E00E94FD
:1023D0003F0A6D960FB6F894DEBF0FBECDBFCF910A
:1023E000DF910895DF93CF93CDB7DEB7E8970FB6AF
:1023F000F894DEBF0FBECDBF82E06FEF0E94EF0901
:1024000080E062E041E00E94EC0881E062E041E0AF
:102410000E94EC0882E062E041E00E94EC0880E06B
:1024200090E0A0EFB1E48DAB9EABAFABB8AF6DA9C0
:102430007EA98FA998AD20E030E04AEF54E40E94D5
:102440001F02DC01CB0189AB9AABABABBCAB69A97A
:102450007AA98BA99CA920E030E040E85FE30E94C4
:10246000790388232CF481E090E098AB8FA73FC0DC
:1024700069A97AA98BA99CA920E03FEF4FE757E40F
:102480000E94190318164CF56DA97EA98FA998AD65
:1024900020E030E040E251E40E941F02DC01CB0169
:1024A000BC01CD010E944900DC01CB0198AB8FA794
:1024B0000FC088EC90E09EA78DA78DA59EA50197E3
:1024C000F1F79EA78DA78FA598A9019798AB8FA725
:1024D0008FA598A9009769F714C069A97AA98BA953
:1024E0009CA90E944900DC01CB0198AB8FA78FA566
:1024F00098A99CA78BA78BA59CA50197F1F79CA7F2
:102500008BA788E20E94DD1080E090E0A0E8BFE3A6
:102510008FA398A7A9A7BAA76FA178A589A59AA5FF
:1025200020E030E04AEF54E40E941F02DC01CB01BE
:102530008BA39CA3ADA3BEA36BA17CA18DA19EA1E7
:1025400020E030E040E85FE30E94790388232CF428
:1025500081E090E09AA389A33FC06BA17CA18DA1EB
:102560009EA120E03FEF4FE757E40E9419031816A1
:102570004CF56FA178A589A59AA520E030E040E24E
:1025800051E40E941F02DC01CB01BC01CD010E947D
:102590004900DC01CB019AA389A30FC088EC90E02D
:1025A00098A38F8F8F8D98A10197F1F798A38F8FA4
:1025B00089A19AA101979AA389A389A19AA10097B9
:1025C00069F714C06BA17CA18DA19EA10E94490056
:1025D000DC01CB019AA389A389A19AA19E8F8D8F3B
:1025E0008D8D9E8D0197F1F79E8F8D8F8CE00E94CF
:1025F000DD1080E090E0A0E8BFE3898F9A8FAB8F79
:10260000BC8F698D7A8D8B8D9C8D20E030E04AEFF8
:1026100054E40E941F02DC01CB018D8B9E8BAF8B9B
:10262000B88F6D897E898F89988D20E030E040E8F1
:102630005FE30E94790388232CF481E090E09C8B77
:102640008B8B3FC06D897E898F89988D20E03FEF0D
:102650004FE757E40E94190318164CF5698D7A8DDF
:102660008B8D9C8D20E030E040E251E40E941F02FF
:10267000DC01CB01BC01CD010E944900DC01CB0192
:102680009C8B8B8B0FC088EC90E09A8B898B89890F
:102690009A890197F1F79A8B898B8B899C8901978D
:1026A0009C8B8B8B8B899C89009769F714C06D89F3
:1026B0007E898F89988D0E944900DC01CB019C8B1B
:1026C0008B8B8B899C89988B8F878F8598890197B5
:1026D000F1F7988B8F8781E00E94DD1080E090E019
:1026E000A0E0B0E48B879C87AD87BE876B857C8537
:1026F0008D859E8520E030E04AEF54E40E941F0261
:10270000DC01CB018F839887A987BA876F81788591
:1027100089859A8520E030E040E85FE30E947903F4
:1027200088232CF481E090E09E838D833FC06F81ED
:10273000788589859A8520E03FEF4FE757E40E942E
:10274000190318164CF56B857C858D859E8520E0D8
:1027500030E040E251E40E941F02DC01CB01BC01E9
:10276000CD010E944900DC01CB019E838D830FC007
:1027700088EC90E09C838B838B819C810197F1F79F
:102780009C838B838D819E8101979E838D838D8118
:102790009E81009769F714C06F81788589859A8535
:1027A0000E944900DC01CB019E838D838D819E8137
:1027B0009A83898389819A810197F1F79A83898322
:1027C00086E00E94DD10E8960FB6F894DEBF0FBEDB
:1027D000CDBFCF91DF910895DF93CF93CDB7DEB713
:1027E0006D970FB6F894DEBF0FBECDBF8D8F80E022
:1027F00062E041E00E943F0A81E062E040E00E9426
:102800003F0A82E06D8D0E94420B82E062E041E06F
:102810000E943F0A80E090E0A0E0B0E4898F9A8FA8
:10282000AB8FBC8F698D7A8D8B8D9C8D20E030E0D5
:102830004AEF54E40E941F02DC01CB018D8B9E8B7A
:10284000AF8BB88F6D897E898F89988D20E030E0BD
:1028500040E85FE30E94790388232CF481E090E054
:102860009C8B8B8B3FC06D897E898F89988D20E0F2
:102870003FEF4FE757E40E94190318164CF5698D96
:102880007A8D8B8D9C8D20E030E040E251E40E94F7
:102890001F02DC01CB01BC01CD010E944900DC011B
:1028A000CB019C8B8B8B0FC088EC90E09A8B898B33
:1028B00089899A890197F1F79A8B898B8B899C89F1
:1028C00001979C8B8B8B8B899C89009769F714C02F
:1028D0006D897E898F89988D0E944900DC01CB012A
:1028E0009C8B8B8B8B899C89988B8F878F85988904
:1028F0000197F1F7988B8F8782E062E040E00E94B9
:102900003F0A80E090E0A0E0B0E48B879C87AD8731
:10291000BE876B857C858D859E8520E030E04AEF03
:1029200054E40E941F02DC01CB018F839887A987A2
:10293000BA876F81788589859A8520E030E040E804
:102940005FE30E94790388232CF481E090E09E836A
:102950008D833FC06F81788589859A8520E03FEF20
:102960004FE757E40E94190318164CF56B857C85D8
:102970008D859E8520E030E040E251E40E941F02F8
:10298000DC01CB01BC01CD010E944900DC01CB017F
:102990009E838D830FC088EC90E09C838B838B811A
:1029A0009C810197F1F79C838B838D819E81019798
:1029B0009E838D838D819E81009769F714C06F81FE
:1029C000788589859A850E944900DC01CB019E8328
:1029D0008D838D819E819A83898389819A810197D4
:1029E000F1F79A83898382E062E041E00E943F0A26
:1029F0006D960FB6F894DEBF0FBECDBFCF91DF91BD
:102A00000895DF93CF9300D00F92CDB7DEB79B83AD
:102A10008A8319820EC08981282F30E08A819B81A8
:102A2000FC01E20FF31F80810E94EC1389818F5F0C
:102A300089838981282F30E08A819B81FC01E20F04
:102A4000F31F8081882339F70F900F900F90CF915B
:102A5000DF9108950F931F93DF93CF93CDB7DEB728
:102A600060970FB6F894DEBF0FBECDBF6D877E872F
:102A70008F87988B1A828D859E85AF85B889009740
:102A8000A105B10509F44FC02DC08A81082F10E0BF
:102A90008D859E85AF85B8892AE030E040E050E022
:102AA000BC01CD010E94A823DC01CB01282FCE015F
:102AB0000396FC01E00FF11F20838D859E85AF8575
:102AC000B8892AE030E040E050E0BC01CD010E942E
:102AD000A823DA01C9018D879E87AF87B88B8A81C9
:102AE0008F5F8A838D859E85AF85B8890097A10504
:102AF000B10559F68A818150898311C08981282FB7
:102B0000332727FD3095CE010396FC01E20FF31F1A
:102B10008081805D0E94EC13898181508983898145
:102B2000882364F703C080E30E94EC1360960FB61D
:102B3000F894DEBF0FBECDBFCF91DF911F910F91F3
:102B40000895DF93CF9300D0CDB7DEB789836A8332
:102B50008981813041F48A81803128F48A818058CA
:102B60000E94DD100AC08981823039F48A81803167
:102B700020F48A8180540E94DD100F900F90CF9135
:102B8000DF910895DF93CF9300D000D0CDB7DEB7AB
:102B90008A837C836B838A818830F8F48A81882FCA
:102BA00090E00896880F991F880F991F880F991F2A
:102BB0000E94DD1019820EC08981282F30E08B81A0
:102BC0009C81FC01E20FF31F80810E94EC1389813C
:102BD0008F5F89838981883078F30F900F900F90F1
:102BE0000F90CF91DF910895DF93CF93CDB7DEB7EC
:102BF0002E970FB6F894DEBF0FBECDBF81E00E94C6
:102C0000DD1080E090E0A0E0B0E48B879C87AD878A
:102C1000BE876B857C858D859E8520E030E04AEF00
:102C200054E40E941F02DC01CB018F839887A9879F
:102C3000BA876F81788589859A8520E030E040E801
:102C40005FE30E94790388232CF481E090E09E8367
:102C50008D833FC06F81788589859A8520E03FEF1D
:102C60004FE757E40E94190318164CF56B857C85D5
:102C70008D859E8520E030E040E251E40E941F02F5
:102C8000DC01CB01BC01CD010E944900DC01CB017C
:102C90009E838D830FC088EC90E09C838B838B8117
:102CA0009C810197F1F79C838B838D819E81019795
:102CB0009E838D838D819E81009769F714C06F81FB
:102CC000788589859A850E944900DC01CB019E8325
:102CD0008D838D819E819A83898389819A810197D1
:102CE000F1F79A8389832E960FB6F894DEBF0FBE54
:102CF000CDBFCF91DF910895DF93CF93CDB7DEB7EE
:102D000060970FB6F894DEBF0FBECDBF888B1F86CD
:102D100078C088E10E94DD1080E090E0A6E9B3E48D
:102D20008B879C87AD87BE876B857C858D859E85CF
:102D300020E030E04AEF54E40E941F02DC01CB01A6
:102D40008F839887A987BA876F81788589859A85C7
:102D500020E030E040E85FE30E94790388232CF410
:102D600081E090E09E838D833FC06F817885898567
:102D70009A8520E03FEF4FE757E40E9419031816A9
:102D80004CF56B857C858D859E8520E030E040E2AA
:102D900051E40E941F02DC01CB01BC01CD010E9465
:102DA0004900DC01CB019E838D830FC088EC90E04D
:102DB0009C838B838B819C810197F1F79C838B8310
:102DC0008D819E8101979E838D838D819E81009749
:102DD00069F714C06F81788589859A850E944900BA
:102DE000DC01CB019E838D838D819E819A838983B3
:102DF00089819A810197F1F79A8389838F858F5F03
:102E00008F879F858889981708F483CF60960FB6BF
:102E1000F894DEBF0FBECDBFCF91DF910895DF9351
:102E2000CF93CDB7DEB760970FB6F894DEBF0FBE75
:102E3000CDBF888B1F8678C08CE10E94DD1080E0BA
:102E400090E0A6E9B3E48B879C87AD87BE876B854E
:102E50007C858D859E8520E030E04AEF54E40E9419
:102E60001F02DC01CB018F839887A987BA876F8106
:102E7000788589859A8520E030E040E85FE30E940C
:102E8000790388232CF481E090E09E838D833FC0FA
:102E90006F81788589859A8520E03FEF4FE757E479
:102EA0000E94190318164CF56B857C858D859E85CF
:102EB00020E030E040E251E40E941F02DC01CB013F
:102EC000BC01CD010E944900DC01CB019E838D83B2
:102ED0000FC088EC90E09C838B838B819C81019751
:102EE000F1F79C838B838D819E8101979E838D83D7
:102EF0008D819E81009769F714C06F8178858985DF
:102F00009A850E944900DC01CB019E838D838D81CF
:102F10009E819A83898389819A810197F1F79A83A7
:102F200089838F858F5F8F879F858889981708F49D
:102F300083CF60960FB6F894DEBF0FBECDBFCF91A2
:102F4000DF910895DF93CF93CDB7DEB760970FB6CB
:102F5000F894DEBF0FBECDBF888B1F8678C080E19E
:102F60000E94DD1080E090E0A6E9B3E48B879C87A7
:102F7000AD87BE876B857C858D859E8520E030E0A2
:102F80004AEF54E40E941F02DC01CB018F83988733
:102F9000A987BA876F81788589859A8520E030E096
:102FA00040E85FE30E94790388232CF481E090E0FD
:102FB0009E838D833FC06F81788589859A8520E0C7
:102FC0003FEF4FE757E40E94190318164CF56B8545
:102FD0007C858D859E8520E030E040E251E40E94B2
:102FE0001F02DC01CB01BC01CD010E944900DC01C4
:102FF000CB019E838D830FC088EC90E09C838B83F4
:103000008B819C810197F1F79C838B838D819E81BD
:1030100001979E838D838D819E81009769F714C0EF
:103020006F81788589859A850E944900DC01CB01F2
:103030009E838D838D819E819A83898389819A81E4
:103040000197F1F79A8389838F858F5F8F879F859B
:103050008889981708F483CF60960FB6F894DEBF7E
:103060000FBECDBFCF91DF910895DF93CF93CDB742
:10307000DEB760970FB6F894DEBF0FBECDBF888B6A
:103080001F8678C084E10E94DD1080E090E0A6E910
:10309000B3E48B879C87AD87BE876B857C858D85E8
:1030A0009E8520E030E04AEF54E40E941F02DC01DC
:1030B000CB018F839887A987BA876F8178858985A7
:1030C0009A8520E030E040E85FE30E94790388239E
:1030D0002CF481E090E09E838D833FC06F817885E2
:1030E00089859A8520E03FEF4FE757E40E94190356
:1030F00018164CF56B857C858D859E8520E030E02B
:1031000040E251E40E941F02DC01CB01BC01CD0171
:103110000E944900DC01CB019E838D830FC088ECA7
:1031200090E09C838B838B819C810197F1F79C833A
:103130008B838D819E8101979E838D838D819E815E
:10314000009769F714C06F81788589859A850E94F8
:103150004900DC01CB019E838D838D819E819A8302
:10316000898389819A810197F1F79A8389838F8571
:103170008F5F8F879F858889981708F483CF609623
:103180000FB6F894DEBF0FBECDBFCF91DF9108958B
:10319000DF93CF93CDB7DEB72F970FB6F894DEBF8E
:1031A0000FBECDBF8F8780E062E040E00E943F0A03
:1031B00081E062E040E00E943F0A84E062E04F85E7
:1031C0000E94220C82E062E041E00E943F0A80E01F
:1031D00090E0A0E0B0E48B879C87AD87BE876B85CD
:1031E0007C858D859E8520E030E04AEF54E40E9486
:1031F0001F02DC01CB018F839887A987BA876F8173
:10320000788589859A8520E030E040E85FE30E9478
:10321000790388232CF481E090E09E838D833FC066
:103220006F81788589859A8520E03FEF4FE757E4E5
:103230000E94190318164CF56B857C858D859E853B
:1032400020E030E040E251E40E941F02DC01CB01AB
:10325000BC01CD010E944900DC01CB019E838D831E
:103260000FC088EC90E09C838B838B819C810197BD
:10327000F1F79C838B838D819E8101979E838D8343
:103280008D819E81009769F714C06F81788589854B
:103290009A850E944900DC01CB019E838D838D813C
:1032A0009E819A83898389819A810197F1F79A8314
:1032B000898382E062E040E00E943F0A2F960FB6C9
:1032C000F894DEBF0FBECDBFCF91DF910895DF939D
:1032D000CF93CDB7DEB7E9970FB6F894DEBF0FBE38
:1032E000CDBF87E089AF08C089AD62E041E00E94B0
:1032F000EC0889AD815089AF89AD8430ACF780E0AE
:1033000062E041E00E94EC0881E062E041E00E945E
:10331000EC0882E062E041E00E94EC0880E090E08E
:10332000A0EFB1E48DAB9EABAFABB8AF6DA97EA9FA
:103330008FA998AD20E030E04AEF54E40E941F02CC
:10334000DC01CB0189AB9AABABABBCAB69A97AA969
:103350008BA99CA920E030E040E85FE30E9479035C
:1033600088232CF481E090E098AB8FA73FC069A937
:103370007AA98BA99CA920E03FEF4FE757E40E9470
:10338000190318164CF56DA97EA98FA998AD20E0F8
:1033900030E040E251E40E941F02DC01CB01BC019D
:1033A000CD010E944900DC01CB0198AB8FA70FC073
:1033B00088EC90E09EA78DA78DA59EA50197F1F7BB
:1033C0009EA78DA78FA598A9019798AB8FA78FA5CA
:1033D00098A9009769F714C069A97AA98BA99CA933
:1033E0000E944900DC01CB0198AB8FA78FA598A95B
:1033F0009CA78BA78BA59CA50197F1F79CA78BA7F2
:1034000082E00E94C81882E00E94C81888E20E94E8
:10341000C81880E090E0A0E8BFE38FA398A7A9A711
:10342000BAA76FA178A589A59AA520E030E04AEF58
:1034300054E40E941F02DC01CB018BA39CA3ADA32B
:10344000BEA36BA17CA18DA19EA120E030E040E84D
:103450005FE30E94790388232CF481E090E09AA333
:1034600089A33FC06BA17CA18DA19EA120E03FEF6D
:103470004FE757E40E94190318164CF56FA178A581
:1034800089A59AA520E030E040E251E40E941F02A5
:10349000DC01CB01BC01CD010E944900DC01CB0164
:1034A0009AA389A30FC088EC90E098A38F8F8F8D8B
:1034B00098A10197F1F798A38F8F89A19AA10197FD
:1034C0009AA389A389A19AA1009769F714C06BA157
:1034D0007CA18DA19EA10E944900DC01CB019AA391
:1034E00089A389A19AA19E8F8D8F8D8D9E8D019725
:1034F000F1F79E8F8D8F80E00E94C8188CE00E94AB
:10350000C81880E090E0A0E8BFE3898F9A8FAB8F66
:10351000BC8F698D7A8D8B8D9C8D20E030E04AEFD9
:1035200054E40E941F02DC01CB018D8B9E8BAF8B7C
:10353000B88F6D897E898F89988D20E030E040E8D2
:103540005FE30E94790388232CF481E090E09C8B58
:103550008B8B3FC06D897E898F89988D20E03FEFEE
:103560004FE757E40E94190318164CF5698D7A8DC0
:103570008B8D9C8D20E030E040E251E40E941F02E0
:10358000DC01CB01BC01CD010E944900DC01CB0173
:103590009C8B8B8B0FC088EC90E09A8B898B8989F0
:1035A0009A890197F1F79A8B898B8B899C8901976E
:1035B0009C8B8B8B8B899C89009769F714C06D89D4
:1035C0007E898F89988D0E944900DC01CB019C8BFC
:1035D0008B8B8B899C89988B8F878F859889019796
:1035E000F1F7988B8F8780E00E94C81881E00E94D5
:1035F000C81880E090E0A0E0B0E48B879C87AD879E
:10360000BE876B857C858D859E8520E030E04AEF06
:1036100054E40E941F02DC01CB018F839887A987A5
:10362000BA876F81788589859A8520E030E040E807
:103630005FE30E94790388232CF481E090E09E836D
:103640008D833FC06F81788589859A8520E03FEF23
:103650004FE757E40E94190318164CF56B857C85DB
:103660008D859E8520E030E040E251E40E941F02FB
:10367000DC01CB01BC01CD010E944900DC01CB0182
:103680009E838D830FC088EC90E09C838B838B811D
:103690009C810197F1F79C838B838D819E8101979B
:1036A0009E838D838D819E81009769F714C06F8101
:1036B000788589859A850E944900DC01CB019E832B
:1036C0008D838D819E819A83898389819A810197D7
:1036D000F1F79A83898380E00E94C81886E00E94EF
:1036E000C818E9960FB6F894DEBF0FBECDBFCF91D4
:1036F000DF910895DF93CF93CDB7DEB72F970FB645
:10370000F894DEBF0FBECDBF8F8780E062E041E05E
:103710000E943F0A81E062E040E00E943F0A84E0AC
:1037200062E04F850E94220C82E062E041E00E944C
:103730003F0A80E090E0A0E0B0E48B879C87AD87F3
:10374000BE876B857C858D859E8520E030E04AEFC5
:1037500054E40E941F02DC01CB018F839887A98764
:10376000BA876F81788589859A8520E030E040E8C6
:103770005FE30E94790388232CF481E090E09E832C
:103780008D833FC06F81788589859A8520E03FEFE2
:103790004FE757E40E94190318164CF56B857C859A
:1037A0008D859E8520E030E040E251E40E941F02BA
:1037B000DC01CB01BC01CD010E944900DC01CB0141
:1037C0009E838D830FC088EC90E09C838B838B81DC
:1037D0009C810197F1F79C838B838D819E8101975A
:1037E0009E838D838D819E81009769F714C06F81C0
:1037F000788589859A850E944900DC01CB019E83EA
:103800008D838D819E819A83898389819A81019795
:10381000F1F79A83898382E062E040E00E943F0AE8
:103820002F960FB6F894DEBF0FBECDBFCF91DF91BC
:103830000895DF93CF930F92CDB7DEB78983898147
:1038400082958F700E947A1B89810E947A1B0F904B
:10385000CF91DF910895DF93CF9300D00F92CDB732
:10386000DEB79B838A8319820EC08981282F30E0BE
:103870008A819B81FC01E20FF31F80810E94191C49
:1038800089818F5F89838981282F30E08A819B819C
:10389000FC01E20FF31F8081882339F70F900F900E
:1038A0000F90CF91DF9108950F931F93DF93CF93E4
:1038B000CDB7DEB760970FB6F894DEBF0FBECDBFB1
:1038C0006D877E878F87988B1A828D859E85AF85C1
:1038D000B8890097A105B10509F44FC02DC08A81B0
:1038E000082F10E08D859E85AF85B8892AE030E0ED
:1038F00040E050E0BC01CD010E94A823DC01CB01D7
:10390000282FCE010396FC01E00FF11F20838D8547
:103910009E85AF85B8892AE030E040E050E0BC01E8
:10392000CD010E94A823DA01C9018D879E87AF8748
:10393000B88B8A818F5F8A838D859E85AF85B88994
:103940000097A105B10559F68A818150898311C07C
:103950008981282F332727FD3095CE010396FC015E
:10396000E20FF31F8081805D0E94191C89818150C4
:1039700089838981882364F703C080E30E94191C2E
:1039800060960FB6F894DEBF0FBECDBFCF91DF912A
:103990001F910F910895DF93CF9300D0CDB7DEB77D
:1039A00089836A8389818130B9F48A818031A0F466
:1039B0008A81882F90E080589F4F9595879595959F
:1039C000879595958795959587950E94C8188A81C2
:1039D00080580E94C81819C089818230B1F48A8148
:1039E000803198F48A81882F90E080549F4F95957C
:1039F00087959595879595958795959587950E9437
:103A0000C8188A8180540E94C8180F900F90CF91D7
:103A1000DF910895DF93CF9300D000D0CDB7DEB70C
:103A20008A837C836B838A81883098F58A81882F8A
:103A300090E00896880F991F880F991F880F991F8B
:103A4000959587959595879595958795959587955E
:103A50000E94C8188A81882F90E00896880F991FC5
:103A6000880F991F880F991F0E94C81819820EC0CD
:103A70008981282F30E08B819C81FC01E20FF31FAC
:103A800080810E94191C89818F5F89838981883098
:103A900078F30F900F900F900F90CF91DF910895D2
:103AA000DF93CF93CDB7DEB72E970FB6F894DEBF76
:103AB0000FBECDBF80E00E94C81881E00E94C818E8
:103AC00080E090E0A0E0B0E48B879C87AD87BE8764
:103AD0006B857C858D859E8520E030E04AEF54E43F
:103AE0000E941F02DC01CB018F839887A987BA87C8
:103AF0006F81788589859A8520E030E040E85FE332
:103B00000E94790388232CF481E090E09E838D83CA
:103B10003FC06F81788589859A8520E03FEF4FE728
:103B200057E40E94190318164CF56B857C858D852A
:103B30009E8520E030E040E251E40E941F02DC015B
:103B4000CB01BC01CD010E944900DC01CB019E8369
:103B50008D830FC088EC90E09C838B838B819C814C
:103B60000197F1F79C838B838D819E8101979E83C2
:103B70008D838D819E81009769F714C06F81788550
:103B800089859A850E944900DC01CB019E838D8343
:103B90008D819E819A83898389819A810197F1F72A
:103BA0009A8389832E960FB6F894DEBF0FBECDBFE1
:103BB000CF91DF910895DF93CF93CDB7DEB76097B4
:103BC0000FB6F894DEBF0FBECDBF888B1F867BC0BB
:103BD00081E00E94C81888E10E94C81880E090E047
:103BE000A6E9B3E48B879C87AD87BE876B857C8510
:103BF0008D859E8520E030E04AEF54E40E941F024C
:103C0000DC01CB018F839887A987BA876F8178857C
:103C100089859A8520E030E040E85FE30E947903DF
:103C200088232CF481E090E09E838D833FC06F81D8
:103C3000788589859A8520E03FEF4FE757E40E9419
:103C4000190318164CF56B857C858D859E8520E0C3
:103C500030E040E251E40E941F02DC01CB01BC01D4
:103C6000CD010E944900DC01CB019E838D830FC0F2
:103C700088EC90E09C838B838B819C810197F1F78A
:103C80009C838B838D819E8101979E838D838D8103
:103C90009E81009769F714C06F81788589859A8520
:103CA0000E944900DC01CB019E838D838D819E8122
:103CB0009A83898389819A810197F1F79A8389830D
:103CC0008F858F5F8F879F858889981708F480CFAD
:103CD00060960FB6F894DEBF0FBECDBFCF91DF91D7
:103CE0000895DF93CF93CDB7DEB760970FB6F89402
:103CF000DEBF0FBECDBF888B1F867BC081E00E94D8
:103D0000C8188CE10E94C81880E090E0A6E9B3E4EE
:103D10008B879C87AD87BE876B857C858D859E85CF
:103D200020E030E04AEF54E40E941F02DC01CB01A6
:103D30008F839887A987BA876F81788589859A85C7
:103D400020E030E040E85FE30E94790388232CF410
:103D500081E090E09E838D833FC06F817885898567
:103D60009A8520E03FEF4FE757E40E9419031816A9
:103D70004CF56B857C858D859E8520E030E040E2AA
:103D800051E40E941F02DC01CB01BC01CD010E9465
:103D90004900DC01CB019E838D830FC088EC90E04D
:103DA0009C838B838B819C810197F1F79C838B8310
:103DB0008D819E8101979E838D838D819E81009749
:103DC00069F714C06F81788589859A850E944900BA
:103DD000DC01CB019E838D838D819E819A838983B3
:103DE00089819A810197F1F79A8389838F858F5F03
:103DF0008F879F858889981708F480CF60960FB6C3
:103E0000F894DEBF0FBECDBFCF91DF910895DF9351
:103E1000CF93CDB7DEB760970FB6F894DEBF0FBE75
:103E2000CDBF888B1F867BC081E00E94C81880E1CF
:103E30000E94C81880E090E0A6E9B3E48B879C87D5
:103E4000AD87BE876B857C858D859E8520E030E0C3
:103E50004AEF54E40E941F02DC01CB018F83988754
:103E6000A987BA876F81788589859A8520E030E0B7
:103E700040E85FE30E94790388232CF481E090E01E
:103E80009E838D833FC06F81788589859A8520E0E8
:103E90003FEF4FE757E40E94190318164CF56B8566
:103EA0007C858D859E8520E030E040E251E40E94D3
:103EB0001F02DC01CB01BC01CD010E944900DC01E5
:103EC000CB019E838D830FC088EC90E09C838B8315
:103ED0008B819C810197F1F79C838B838D819E81DF
:103EE00001979E838D838D819E81009769F714C011
:103EF0006F81788589859A850E944900DC01CB0114
:103F00009E838D838D819E819A83898389819A8105
:103F10000197F1F79A8389838F858F5F8F879F85BC
:103F20008889981708F480CF60960FB6F894DEBFA2
:103F30000FBECDBFCF91DF910895DF93CF93CDB763
:103F4000DEB760970FB6F894DEBF0FBECDBF888B8B
:103F50001F867BC081E00E94C81884E10E94C818B7
:103F600080E090E0A6E9B3E48B879C87AD87BE87AD
:103F70006B857C858D859E8520E030E04AEF54E49A
:103F80000E941F02DC01CB018F839887A987BA8723
:103F90006F81788589859A8520E030E040E85FE38D
:103FA0000E94790388232CF481E090E09E838D8326
:103FB0003FC06F81788589859A8520E03FEF4FE784
:103FC00057E40E94190318164CF56B857C858D8586
:103FD0009E8520E030E040E251E40E941F02DC01B7
:103FE000CB01BC01CD010E944900DC01CB019E83C5
:103FF0008D830FC088EC90E09C838B838B819C81A8
:104000000197F1F79C838B838D819E8101979E831D
:104010008D838D819E81009769F714C06F817885AB
:1040200089859A850E944900DC01CB019E838D839E
:104030008D819E819A83898389819A810197F1F785
:104040009A8389838F858F5F8F879F85888998174B
:1040500008F480CF60960FB6F894DEBF0FBECDBFD8
:10406000CF91DF910895DF93CF93CDB7DEB7AF97B0
:104070000FB6F894DEBF0FBECDBF87E063E041E02E
:104080000E94EC0881E06FEF0E94EF090E941C0D76
:104090000E9467190E94501D81E060E00E94CB1CC5
:1040A00080E690E00E942B1C80E090E0AAE7B4E458
:1040B0008FA398A7A9A7BAA76FA178A589A59AA544
:1040C00020E030E04AEF54E40E941F02DC01CB0103
:1040D0008BA39CA3ADA3BEA36BA17CA18DA19EA12C
:1040E00020E030E040E85FE30E94790388232CF46D
:1040F00081E090E09AA389A33FC06BA17CA18DA130
:104100009EA120E03FEF4FE757E40E9419031816E5
:104110004CF56FA178A589A59AA520E030E040E292
:1041200051E40E941F02DC01CB01BC01CD010E94C1
:104130004900DC01CB019AA389A30FC088EC90E071
:1041400098A38F8F8F8D98A10197F1F798A38F8FE8
:1041500089A19AA101979AA389A389A19AA10097FD
:1041600069F714C06BA17CA18DA19EA10E9449009A
:10417000DC01CB019AA389A389A19AA19E8F8D8F7F
:104180008D8D9E8D0197F1F79E8F8D8F0E94501D12
:1041900080E090E0AAE7B4E4898F9A8FAB8FBC8F60
:1041A000698D7A8D8B8D9C8D20E030E04AEF54E450
:1041B0000E941F02DC01CB018D8B9E8BAF8BB88FD1
:1041C0006D897E898F89988D20E030E040E85FE33B
:1041D0000E94790388232CF481E090E09C8B8B8BE8
:1041E0003FC06D897E898F89988D20E03FEF4FE732
:1041F00057E40E94190318164CF5698D7A8D8B8D42
:104200009C8D20E030E040E251E40E941F02DC017E
:10421000CB01BC01CD010E944900DC01CB019C8B8C
:104220008B8B0FC088EC90E09A8B898B89899A8957
:104230000197F1F79A8B898B8B899C8901979C8BCD
:104240008B8B8B899C89009769F714C06D897E8957
:104250008F89988D0E944900DC01CB019C8B8B8B50
:104260008B899C89988B8F878F8598890197F1F727
:10427000988B8F8780E00E944D0D8FA781E00E9470
:104280004D0D8EA78FA5882F90E0A0E0B0E028E824
:1042900033E140E050E0BC01CD010E947523DC0118
:1042A000CB01892F99279DA78CA78CA59DA52AE0D6
:1042B00030E0B9010E949423CB018BA78EA58823FF
:1042C00061F58EA58D3148F580E061E041E00E9406
:1042D0003F0A81E061E041E00E943F0A82E061E044
:1042E00041E00E943F0A83E061E041E00E943F0A12
:1042F00084E061E041E00E943F0A85E061E041E046
:104300000E943F0A86E061E041E00E943F0A87E0A8
:1043100061E041E00E943F0A48C18EA58D3160F105
:104320008EA5893348F580E061E041E00E943F0AB4
:1043300081E061E041E00E943F0A82E061E041E00B
:104340000E943F0A83E061E041E00E943F0A84E06E
:1043500061E041E00E943F0A85E061E041E00E94A7
:104360003F0A86E061E041E00E943F0A87E061E0A9
:1043700040E00E943F0A19C18EA5893360F18EA5E5
:10438000853548F580E061E041E00E943F0A81E028
:1043900061E041E00E943F0A82E061E041E00E946A
:1043A0003F0A83E061E041E00E943F0A84E061E06F
:1043B00041E00E943F0A85E061E041E00E943F0A3F
:1043C00086E061E040E00E943F0A87E061E040E073
:1043D0000E943F0AEAC08EA5853560F18EA581371F
:1043E00048F580E061E041E00E943F0A81E061E041
:1043F00041E00E943F0A82E061E041E00E943F0A02
:1044000083E061E041E00E943F0A84E061E041E036
:104410000E943F0A85E061E040E00E943F0A86E09A
:1044200061E040E00E943F0A87E061E040E00E94D6
:104430003F0ABBC08EA5813760F18EA58D3848F547
:1044400080E061E041E00E943F0A81E061E041E0FC
:104450000E943F0A82E061E041E00E943F0A83E05F
:1044600061E041E00E943F0A84E061E040E00E9498
:104470003F0A85E061E040E00E943F0A86E061E09B
:1044800040E00E943F0A87E061E040E00E943F0A6E
:104490008CC08EA58D3860F18EA5893A48F580E0F4
:1044A00061E041E00E943F0A81E061E041E00E945A
:1044B0003F0A82E061E041E00E943F0A83E061E060
:1044C00040E00E943F0A84E061E040E00E943F0A31
:1044D00085E061E040E00E943F0A86E061E040E064
:1044E0000E943F0A87E061E040E00E943F0A5DC011
:1044F0008EA5893A60F18EA5853C48F580E061E0A3
:1045000041E00E943F0A81E061E041E00E943F0AF1
:1045100082E061E040E00E943F0A83E061E040E029
:104520000E943F0A84E061E040E00E943F0A85E08B
:1045300061E040E00E943F0A86E061E040E00E94C6
:104540003F0A87E061E040E00E943F0A2EC08EA54E
:10455000853C58F18EA5813E40F580E061E040E069
:104560000E943F0A81E061E040E00E943F0A82E051
:1045700061E040E00E943F0A83E061E040E00E9489
:104580003F0A84E061E040E00E943F0A85E061E08C
:1045900040E00E943F0A86E061E040E00E943F0A5E
:1045A00087E061E040E00E943F0A8BA5803130F057
:1045B00087E063E041E00E943F0A05C087E063E0D6
:1045C00040E00E943F0A81E060E00E94CB1C8BE645
:1045D00090E00E942B1C8EA5882F90E0A0E0B0E018
:1045E000BC01CD010E94541C82E790E00E942B1C6C
:1045F00082E060E00E94CB1C84E790E00E942B1CCC
:1046000080E090E0AAE7B4E48B879C87AD87BE8703
:104610006B857C858D859E8520E030E04AEF54E4F3
:104620000E941F02DC01CB018F839887A987BA877C
:104630006F81788589859A8520E030E040E85FE3E6
:104640000E94790388232CF481E090E09E838D837F
:104650003FC06F81788589859A8520E03FEF4FE7DD
:1046600057E40E94190318164CF56B857C858D85DF
:104670009E8520E030E040E251E40E941F02DC0110
:10468000CB01BC01CD010E944900DC01CB019E831E
:104690008D830FC088EC90E09C838B838B819C8101
:1046A0000197F1F79C838B838D819E8101979E8377
:1046B0008D838D819E81009769F714C06F81788505
:1046C00089859A850E944900DC01CB019E838D83F8
:1046D0008D819E819A83898389819A810197F1F7DF
:1046E0009A8389830E94501DC5CD629FD001739F1C
:1046F000F001829FE00DF11D649FE00DF11D929F7E
:10470000F00D839FF00D749FF00D659FF00D9927BC
:10471000729FB00DE11DF91F639FB00DE11DF91FE0
:10472000BD01CF0111240895AA1BBB1B51E107C095
:10473000AA1FBB1FA617B70710F0A61BB70B881F31
:10474000991F5A95A9F780959095BC01CD010895C0
:10475000A1E21A2EAA1BBB1BFD010DC0AA1FBB1F85
:10476000EE1FFF1FA217B307E407F50720F0A21BF7
:10477000B30BE40BF50B661F771F881F991F1A9464
:1047800069F760957095809590959B01AC01BD018E
:10479000CF0108952F923F924F925F926F927F9236
:1047A0008F929F92AF92BF92CF92DF92EF92FF9241
:1047B0000F931F93CF93DF93CDB7DEB7CA1BDB0BED
:1047C0000FB6F894DEBF0FBECDBF09942A88398892
:1047D00048885F846E847D848C849B84AA84B98499
:1047E000C884DF80EE80FD800C811B81AA81B981A5
:1047F000CE0FD11D0FB6F894DEBF0FBECDBFED01B9
:064800000895F894FFCFBB
:10480600534D41525420484F4D450054454D50207C
:104816003D004300505245535320544F204C4F47C0
:10482600494E0000000000000000003734314F38C8
:0C4836003532303936333D2F2A2D2B004F
:00000001FF
