:100000000C942A000C9424100C9457100C948A1011
:100010000C9447000C9447000C94F8080C9447008B
:100020000C9447000C94CB080C94C1070C949407D3
:100030000C9447000C9447000C9447000C94470024
:100040000C9447000C9447000C9447000C94470014
:100050000C94470011241FBECFE5D8E0DEBFCDBF12
:1000600010E0A0E6B0E0EAE5F3E502C005900D92ED
:10007000A23CB107D9F710E0A2ECB0E001C01D929C
:10008000AF3CB107E1F70E9491230C94AB290C948B
:100090000000EF92FF920F931F937B018C0120E0F1
:1000A00030E040E05FE40E94490388238CF0C801FF
:1000B000B70120E030E040E05FE40E94C1010E940F
:1000C000A9039B01AC01205030404040504806C07D
:1000D000C801B7010E94A9039B01AC01B901CA0183
:1000E0001F910F91FF90EF900895A0E0B0E0EBE733
:1000F000F0E00C947429DC012B01FA019C91923000
:1001000008F439C1EB018881823008F433C194309E
:1001100069F4843009F02FC111969C91119789815F
:10012000981709F428C1A1EAB0E025C1843009F488
:1001300021C18230A9F4923009F01DC19A01AD01AC
:1001400088E0EA010990AE01E90109929E0181501F
:10015000C1F7E201898111969C918923818308C1AD
:10016000923009F407C112962D903C901397EB0141
:100170008A819B811496AD90BD90CD90DC901797AD
:10018000EC80FD800E811F819101281B390BB90184
:1001900037FF04C066277727621B730B6032710537
:1001A0000CF061C0121613066CF537014801062EDB
:1001B00004C096948794779467940A94D2F721E0C8
:1001C00030E040E050E004C0220F331F441F551FB1
:1001D0006A95D2F721503040404050402E213F21B7
:1001E00040235123211531054105510521F021E01E
:1001F00030E040E050E079018A01E628F72808293C
:1002000019293CC0232BD1F1260E371E350146019A
:10021000062E04C096948794779467940A94D2F734
:1002200021E030E040E050E004C0220F331F441FC3
:10023000551F6A95D2F721503040404050402A2146
:100240003B214C215D21211531054105510521F04E
:1002500021E030E040E050E059016A01A628B728CB
:10026000C828D9280BC0821593052CF01C01AA249C
:10027000BB24650103C0EE24FF24870111969C91E5
:10028000D20111968C91981709F445C0992339F041
:10029000A80197012A193B094C095D0906C0A6016E
:1002A00095012E193F09400B510B57FD08C01182D3
:1002B0003382228224833583468357831DC081E0A5
:1002C00081833382228288279927DC01821B930B4A
:1002D000A40BB50B84839583A683B7830DC0220F2F
:1002E000331F441F551F24833583468357838281E0
:1002F000938101979383828324813581468157813D
:10030000DA01C9010197A109B1098F5F9F4FAF4F72
:10031000BF4328F30BC0918333822282EA0CFB1C7B
:100320000C1D1D1DE482F5820683178383E0808304
:10033000248135814681578157FF1AC0C901AA27F8
:1003400097FDA095BA2F81709070A070B0705695EF
:10035000479537952795822B932BA42BB52B848318
:100360009583A683B7838281938101969383828349
:10037000DF0101C0D201CD01CDB7DEB7E2E10C94BF
:100380009029A0E2B0E0E7ECF1E00C9480296983C9
:100390007A838B839C832D833E834F835887E9E048
:1003A000EE2EF12CEC0EFD1ECE010196B7010E943F
:1003B000D2048E010F5E1F4FCE010596B8010E9438
:1003C000D2048A8991E089278A8BC701B801AE01DE
:1003D000475E5F4F0E9475000E94FD03A096E6E015
:1003E0000C949C29A0E2B0E0E8EFF1E00C948029A5
:1003F00069837A838B839C832D833E834F835887C5
:10040000F9E0EF2EF12CEC0EFD1ECE010196B701A6
:100410000E94D2048E010F5E1F4FCE010596B801D7
:100420000E94D204C701B801AE01475E5F4F0E942F
:1004300075000E94FD03A096E6E00C949C29A0E2C2
:10044000B0E0E5E2F2E00C94742969837A838B834F
:100450009C832D833E834F835887CE010196BE0136
:10046000675F7F4F0E94D204CE010596BE016F5E8A
:100470007F4F0E94D2049985923088F0898982301A
:10048000C8F0943019F4823051F404C0843029F457
:10049000923081F481EA90E0C6C0923049F420E0C5
:1004A0009A858A89981321E02A87CE010996BBC0D4
:1004B000823049F420E09A858A89981321E02A8BBA
:1004C000CE014196B0C02D843E844F8458886D88FB
:1004D0007E888F88988CEE24FF248701AA24BB2471
:1004E000650140E050E060E070E0E0E0F0E0C10174
:1004F00081709070892BE9F0E60CF71C081D191D1E
:100500009A01AB012A0D3B1D4C1D5D1D80E090E062
:10051000A0E0B0E0E614F7040805190520F481E036
:1005200090E0A0E0B0E0BA01A901480F591F6A1F8E
:100530007B1FAA0CBB1CCC1CDD1C97FE08C081E0F5
:1005400090E0A0E0B0E0A82AB92ACA2ADB2A3196B6
:10055000E032F10549F0660C771C881C991C569412
:10056000479437942794C3CFFA85EA892B893C892D
:100570008B859C85280F391F2E5F3F4F17C0CA01FE
:1005800081709070892B61F016950795F794E79428
:1005900080E090E0A0E0B0E8E82AF92A0A2B1B2BC3
:1005A00076956795579547952F5F3F4F77FDE7CF36
:1005B0000CC0440F551F661F771F17FD4160EE0CDE
:1005C000FF1C001F111F21503040403090E05907A0
:1005D00090E0690790E4790760F32B8F3C8FDB0193
:1005E000CA018F779070A070B07080349105A1051A
:1005F000B10561F447FD0AC0E114F10401051105DC
:1006000029F0405C5F4F6F4F7F4F40781A8EFE1786
:1006100011F081E08A8F4D8F5E8F6F8F78A383E01A
:10062000898FCE0149960E94FD03A096E2E10C94C9
:100630009029A8E1B0E0EFE1F3E00C948029698310
:100640007A838B839C832D833E834F83588789E0F5
:10065000E82EF12CEC0EFD1ECE010196B7010E9492
:10066000D2048E010F5E1F4FCE010596B8010E9485
:10067000D2048985823040F08989823028F0C70110
:10068000B8010E944A0501C08FEF6896E6E00C941D
:100690009C29A8E1B0E0EFE4F3E00C9480296983A1
:1006A0007A838B839C832D833E834F83588789E095
:1006B000E82EF12CEC0EFD1ECE010196B7010E9432
:1006C000D2048E010F5E1F4FCE010596B8010E9425
:1006D000D2048985823040F08989823028F0C701B0
:1006E000B8010E944A0501C08FEF6896E6E00C94BD
:1006F0009C29A8E1B0E0EFE7F3E00C94802969833E
:100700007A838B839C832D833E834F83588789E034
:10071000E82EF12CEC0EFD1ECE010196B7010E94D1
:10072000D2048E010F5E1F4FCE010596B8010E94C4
:10073000D2048985823040F08989823028F0C7014F
:10074000B8010E944A0501C081E06896E6E00C9479
:100750009C29ACE0B0E0EFEAF3E00C9484296983D3
:100760007A838B839C83CE010196BE016B5F7F4FA2
:100770000E94D2048D81823061F1823050F1843048
:1007800021F48E81882351F12EC02F81388537FDC9
:1007900020C06E812F3131051CF06623F9F023C093
:1007A0008EE190E0821B930B29853A854B855C8511
:1007B00004C056954795379527958A95D2F76623B5
:1007C000B1F050954095309521953F4F4F4F5F4F79
:1007D0000EC020E030E040E050E009C02FEF3FEFD6
:1007E0004FEF5FE704C020E030E040E050E8B9019F
:1007F000CA012C96E2E00C94A029DF92EF92FF92BE
:100800000F931F93FC01E480F58006811781D1804E
:100810008081823048F480E090E0A0E1B0E0E82AF6
:10082000F92A0A2B1B2BA5C0843009F49FC0823003
:1008300021F4EE24FF24870105C0E114F104010531
:10084000110519F4E0E0F0E096C0628173819FEF3A
:10085000623879070CF05BC022E83FEF261B370BAC
:100860002A3131052CF020E030E040E050E02AC091
:10087000B801A701022E04C0769567955795479554
:100880000A94D2F781E090E0A0E0B0E004C0880FC5
:10089000991FAA1FBB1F2A95D2F70197A109B10979
:1008A0008E219F21A023B1230097A105B10521F03E
:1008B00081E090E0A0E0B0E09A01AB01282B392B59
:1008C0004A2B5B2BDA01C9018F779070A070B07052
:1008D00080349105A105B10539F427FF09C0205CDA
:1008E0003F4F4F4F5F4F04C0215C3F4F4F4F5F4F13
:1008F000E0E0F0E02030A0E03A07A0E04A07A0E402
:100900005A0710F0E1E0F0E079018A0127C0603871
:10091000710564F5FB01E158FF4FD801C7018F77DE
:100920009070A070B07080349105A105B10539F4C4
:10093000E7FE0DC080E490E0A0E0B0E004C08FE3EB
:1009400090E0A0E0B0E0E80EF91E0A1F1B1F17FFA1
:1009500005C016950795F794E794319687E01695AC
:100960000795F794E7948A95D1F705C0EE24FF2404
:100970008701EFEFF0E06E2F679566276795902F60
:100980009F77D794DD24D7948E2F8695492F462BB9
:10099000582F5D29B701CA011F910F91FF90EF9069
:1009A000DF900895FC01DB01408151812281622F9B
:1009B0006F7770E0221F2227221F9381892F880FD3
:1009C000822B282F30E0991F9927991F11969C930D
:1009D000119721153105A9F54115510561057105DD
:1009E00011F482E037C082E89FEF13969C938E93B8
:1009F00012979A01AB0167E0220F331F441F551F66
:100A00006A95D1F783E08C930DC0220F331F441FEA
:100A1000551F12968D919C911397019713969C9355
:100A20008E931297203080E0380780E0480780E4FA
:100A3000580758F314962D933D934D935C93179755
:100A400008952F3F310579F4411551056105710570
:100A500019F484E08C93089564FF03C081E08C93C3
:100A600012C01C9210C02F57304013963C932E9307
:100A7000129783E08C9387E0440F551F661F771F02
:100A80008A95D1F7706414964D935D936D937C9322
:100A9000179708951F93DC01FB019C91923008F495
:100AA00047C08081823008F443C0943051F41196DD
:100AB0001C91843099F58181682F70E0611B710968
:100AC0003FC0843021F0923031F48230B9F181811D
:100AD000882389F12DC011961C9111978230F1F075
:100AE00081811817D9F412962D913C911397828128
:100AF00093818217930794F028173907BCF0149656
:100B00008D919D910D90BC91A02D248135814681C0
:100B10005781281739074A075B0718F4112341F05A
:100B20000AC082179307A407B50740F4112319F0F0
:100B300061E070E005C06FEF7FEF02C060E070E041
:100B4000CB011F910895DF93CF930F92CDB7DEB7FE
:100B50008983A6E5B0E0E6E5F0E0808180648C93CF
:100B6000E0E2F0E082E08083A1E2B0E0E1E2F0E0E8
:100B700080818E7F8C93A1E2B0E0E1E2F0E08081A1
:100B80008D7F8C938981882329F0E2E2F0E08981CE
:100B9000880F8083A6E5B0E0E6E5F0E08081846020
:100BA0008C930F90CF91DF910895DF93CF930F92A5
:100BB000CDB7DEB78983E2E2F0E08981880F8083D8
:100BC000A6E5B0E0E6E5F0E0808180648C93A6E5E0
:100BD000B0E0E6E5F0E0808184608C930F90CF91E7
:100BE000DF910895DF93CF930F92CDB7DEB71982CF
:100BF000A6E5B0E0E6E5F0E0808180628C93A6E5B2
:100C0000B0E0E6E5F0E0808180688C93E6E5F0E016
:100C100080818823DCF7E1E2F0E08081882F90E09A
:100C2000887F90708830910511F081E089838981F7
:100C30000F90CF91DF910895DF93CF930F92CDB7AF
:100C4000DEB71982A6E5B0E0E6E5F0E080818062DB
:100C50008C93A6E5B0E0E6E5F0E0808180688C93B7
:100C6000E6E5F0E080818823DCF7E1E2F0E08081D6
:100C7000882F90E0887F90708031910511F082E09C
:100C8000898389810F90CF91DF910895DF93CF936E
:100C900000D0CDB7DEB78A831982E3E2F0E08A8123
:100CA000880F8083A3E2B0E0E3E2F0E080818E7FF2
:100CB0008C93A6E5B0E0E6E5F0E080818F7D8C9333
:100CC000A6E5B0E0E6E5F0E0808180688C93E6E59B
:100CD000F0E080818823DCF7E1E2F0E08081882F7A
:100CE00090E0887F90708831910511F083E08983CE
:100CF00089810F900F90CF91DF910895DF93CF936B
:100D000000D0CDB7DEB78A831982E3E2F0E08A81B2
:100D1000880F8083A3E2B0E0E3E2F0E080818160AD
:100D20008C93A6E5B0E0E6E5F0E080818F7D8C93C2
:100D3000A6E5B0E0E6E5F0E0808180688C93E6E52A
:100D4000F0E080818823DCF7E1E2F0E08081882F09
:100D500090E0887F90708034910511F084E0898361
:100D600089810F900F90CF91DF910895DF93CF93FA
:100D700000D0CDB7DEB78A831982E3E2F0E08A8142
:100D80008083A6E5B0E0E6E5F0E0808180688C93A2
:100D9000E6E5F0E080818823DCF7E1E2F0E08081A5
:100DA000882F90E0887F90708832910511F085E05F
:100DB000898389810F900F90CF91DF910895DF9300
:100DC000CF9300D00F92CDB7DEB79B838A83198271
:100DD000A6E5B0E0E6E5F0E0808180688C93E6E58A
:100DE000F0E080818823DCF7E1E2F0E08081882F69
:100DF00090E0887F90708035910519F086E08983B6
:100E000006C0E3E2F0E08081EA81FB818083898192
:100E10000F900F900F90CF91DF910895DF93CF93B4
:100E2000CDB7DEB7A6E5B0E0E6E5F0E08081806111
:100E30008C93A6E5B0E0E6E5F0E0808180688C93D5
:100E4000CF91DF910895DF93CF93CDB7DEB7A3E5C0
:100E5000B0E0E3E5F0E08081887F8C93A3E5B0E02B
:100E6000E3E5F0E0808183608C93A3E5B0E0E3E507
:100E7000F0E0808180648C93A3E5B0E0E3E5F0E0EE
:100E80008081877F8C93A3E5B0E0E3E5F0E080818B
:100E900080628C93A3E5B0E0E3E5F0E080818F7E93
:100EA0008C93CF91DF910895DF93CF930F92CDB7BD
:100EB000DEB78983E2E5F0E0898180830F90CF91EE
:100EC000DF910895DF93CF930F92CDB7DEB789837B
:100ED000ECE5F0E0898180830F90CF91DF91089558
:100EE000DF93CF9300D0CDB7DEB79A838983898112
:100EF0009A819093CA008093C9000F900F90CF9170
:100F0000DF910895DF93CF9300D0CDB7DEB79A83FA
:100F1000898389819A819093CA008093C9000F9038
:100F20000F90CF91DF9108951F920F920FB60F92FD
:100F300011242F933F934F935F936F937F938F93DE
:100F40009F93AF93BF93EF93FF93DF93CF93CDB76F
:100F5000DEB7E091C900F091CA000995CF91DF9109
:100F6000FF91EF91BF91AF919F918F917F916F9181
:100F70005F914F913F912F910F900FBE0F901F9057
:100F800018951F920F920FB60F9211242F933F9333
:100F90004F935F936F937F938F939F93AF93BF9381
:100FA000EF93FF93DF93CF93CDB7DEB7E091C90006
:100FB000F091CA000995CF91DF91FF91EF91BF9118
:100FC000AF919F918F917F916F915F914F913F91E1
:100FD0002F910F900FBE0F901F901895DF93CF9316
:100FE000CDB7DEB7AEE4B0E0EEE4F0E08081887F1C
:100FF0008C93AEE4B0E0EEE4F0E0808181608C930D
:10100000AFE4B0E0EFE4F0E080818E7F8C93AFE45A
:10101000B0E0EFE4F0E0808182608C93AEE4B0E079
:10102000EEE4F0E0808188608C93AEE4B0E0EEE422
:10103000F0E0808180618C93E6E4F0E080E29EE461
:1010400091838083EAE4F0E08EEE92E091838083E6
:10105000AFE4B0E0EFE4F0E0808180688C93AFE42F
:10106000B0E0EFE4F0E080818F7B8C93AEE4B0E001
:10107000EEE4F0E080818B7F8C93AEE4B0E0EEE4B0
:10108000F0E0808182608C93AEE4B0E0EEE4F0E0CA
:1010900080818E7F8C93CF91DF910895DF93CF93E2
:1010A00000D0CDB7DEB79A838983ECE4F0E0898184
:1010B0009A81918380830F900F90CF91DF91089553
:1010C000DF93CF93CDB7DEB7ECE4F0E08081918180
:1010D000CF91DF910895DF93CF93CDB7DEB7E6E4EC
:1010E000F0E080819181CF91DF910895DF93CF93DC
:1010F0000F92CDB7DEB789838981882341F4AEE4AE
:10110000B0E0EEE4F0E080818F7B8C930AC08981AF
:10111000813039F4AEE4B0E0EEE4F0E08081806448
:101120008C930F90CF91DF910895DF93CF9300D0F0
:10113000CDB7DEB79A838983EAE4F0E089819A81AA
:10114000918380830F900F90CF91DF910895DF936B
:10115000CF9300D0CDB7DEB79A83898389819A81F6
:101160009093CC008093CB000F900F90CF91DF91A4
:101170000895DF93CF9300D0CDB7DEB79A838983EC
:1011800089819A819093CE008093CD000F900F902B
:10119000CF91DF9108951F920F920FB60F921124F5
:1011A0002F933F934F935F936F937F938F939F936F
:1011B000AF93BF93EF93FF93DF93CF93CDB7DEB79A
:1011C000E091CB00F091CC000995CF91DF91FF9198
:1011D000EF91BF91AF919F918F917F916F915F91AF
:1011E0004F913F912F910F900FBE0F901F90189528
:1011F0001F920F920FB60F9211242F933F934F938C
:101200005F936F937F938F939F93AF93BF93EF936E
:10121000FF93DF93CF93CDB7DEB7E091CD00F09190
:10122000CE000995CF91DF91FF91EF91BF91AF91E2
:101230009F918F917F916F915F914F913F912F91EE
:101240000F900FBE0F901F901895DF93CF93CDB7DF
:10125000DEB7EAE3F0E080EF8083E7E3F0E08FEFD2
:101260008083E4E3F0E08FEF8083E1E3F0E08FEF51
:101270008083EBE3F0E08FEF8083E8E3F0E08FEF33
:101280008083E5E3F0E08FEF8083E2E3F0E010821B
:10129000CF91DF910895DF93CF9300D000D000D09D
:1012A000CDB7DEB78A836B834C8381E089838A81E3
:1012B000883008F0E8C08B81282F30E03E832D83F2
:1012C0008D819E818130910509F448C02D813E8138
:1012D000223031052CF48D819E81009771F0D1C0B0
:1012E0002D813E812230310509F469C08D819E81B6
:1012F0008330910509F494C0C4C08C818130A1F47D
:10130000AAE3B0E0EAE3F0E08081482F8A81282F49
:1013100030E081E090E0022E02C0880F991F0A940D
:10132000E2F7842B8C93B0C08C818823A9F4AAE3C4
:10133000B0E0EAE3F0E08081482F8A81282F30E096
:1013400081E090E0022E02C0880F991F0A94E2F714
:10135000809584238C9398C0198296C08C818130AB
:10136000A1F4A7E3B0E0E7E3F0E08081482F8A81B1
:10137000282F30E081E090E0022E02C0880F991FF4
:101380000A94E2F7842B8C937FC08C818823A9F484
:10139000A7E3B0E0E7E3F0E08081482F8A81282FBF
:1013A00030E081E090E0022E02C0880F991F0A947D
:1013B000E2F7809584238C9367C0198265C08C8185
:1013C0008130A1F4A4E3B0E0E4E3F0E08081482FB1
:1013D0008A81282F30E081E090E0022E02C0880F41
:1013E000991F0A94E2F7842B8C934EC08C8188233A
:1013F000A9F4A4E3B0E0E4E3F0E08081482F8A811F
:10140000282F30E081E090E0022E02C0880F991F63
:101410000A94E2F7809584238C9336C0198234C0F5
:101420008C818130A1F4A1E3B0E0E1E3F0E08081C0
:10143000482F8A81282F30E081E090E0022E02C000
:10144000880F991F0A94E2F7842B8C931DC08C811E
:101450008823A9F4A1E3B0E0E1E3F0E08081482F24
:101460008A81282F30E081E090E0022E02C0880FB0
:10147000991F0A94E2F7809584238C9305C0198202
:1014800003C0198201C01982898126960FB6F8948B
:10149000DEBF0FBECDBFCF91DF910895DF93CF9315
:1014A00000D000D00F92CDB7DEB78A836B8381E086
:1014B00089838B818F3F19F08B818823A9F58A81DD
:1014C000282F30E03D832C838C819D8181309105D4
:1014D000D1F02C813D81223031052CF48C819D810D
:1014E000009761F01FC02C813D812230310581F0D1
:1014F0008C819D818330910581F014C0EAE3F0E096
:101500008B81808312C0E7E3F0E08B8180830DC084
:10151000E4E3F0E08B81808308C0E1E3F0E08B81BD
:10152000808303C0198201C0198289810F900F90B6
:101530000F900F900F90CF91DF910895DF93CF938D
:1015400000D000D000D0CDB7DEB78A836B834C8348
:1015500081E089838A81883008F0E8C08B81282F58
:1015600030E03E832D838D819E818130910509F489
:1015700048C02D813E81223031052CF48D819E8121
:10158000009771F0D1C02D813E812230310509F4E0
:1015900069C08D819E818330910509F494C0C4C0D7
:1015A0008C818130A1F4ABE3B0E0EBE3F0E080812B
:1015B000482F8A81282F30E081E090E0022E02C07F
:1015C000880F991F0A94E2F7842B8C93B0C08C810A
:1015D0008823A9F4ABE3B0E0EBE3F0E08081482F8F
:1015E0008A81282F30E081E090E0022E02C0880F2F
:1015F000991F0A94E2F7809584238C9398C01982EE
:1016000096C08C818130A1F4A8E3B0E0E8E3F0E07B
:101610008081482F8A81282F30E081E090E0022EDF
:1016200002C0880F991F0A94E2F7842B8C937FC025
:101630008C818823A9F4A8E3B0E0E8E3F0E080819E
:10164000482F8A81282F30E081E090E0022E02C0EE
:10165000880F991F0A94E2F7809584238C9367C0C2
:10166000198265C08C818130A1F4A5E3B0E0E5E387
:10167000F0E08081482F8A81282F30E081E090E0DF
:10168000022E02C0880F991F0A94E2F7842B8C93D4
:101690004EC08C818823A9F4A5E3B0E0E5E3F0E037
:1016A0008081482F8A81282F30E081E090E0022E4F
:1016B00002C0880F991F0A94E2F7809584238C93C7
:1016C00036C0198234C08C818130A1F4A2E3B0E02D
:1016D000E2E3F0E08081482F8A81282F30E081E02A
:1016E00090E0022E02C0880F991F0A94E2F7842B23
:1016F0008C931DC08C818823A9F4A2E3B0E0E2E3BF
:10170000F0E08081482F8A81282F30E081E090E04E
:10171000022E02C0880F991F0A94E2F78095842355
:101720008C9305C0198203C0198201C01982898176
:1017300026960FB6F894DEBF0FBECDBFCF91DF91D6
:101740000895DF93CF9300D000D00F92CDB7DEB7CE
:101750008A836B8381E089838A81282F30E03D83EF
:101760002C838C819D8181309105D1F02C813D812C
:10177000223031052CF48C819D81009761F01FC0CF
:101780002C813D812230310581F08C819D81833017
:10179000910581F014C0EBE3F0E08B81808310C0F1
:1017A000E8E3F0E08B8180830BC0E5E3F0E08B8120
:1017B000808306C0E2E3F0E08B81808301C0198260
:1017C00089810F900F900F900F900F90CF91DF9124
:1017D0000895DF93CF93CDB7DEB727970FB6F89470
:1017E000DEBF0FBECDBF8A836B835D834C8381E0F8
:1017F00089838A81883008F079C08C819D8181300D
:10180000910509F473C08B81282F30E03F832E832C
:101810004E815F814130510559F18E819F81823027
:10182000910534F42E813F812115310569F05CC0AA
:101830004E815F814230510579F18E819F818330E5
:10184000910509F43DC050C0E9E3F0E08081282F04
:1018500030E08A81882F90E0A90102C05595479514
:101860008A95E2F7CA018170EC81FD8180833FC0D7
:10187000E6E3F0E08081282F30E08A81882F90E035
:10188000A90102C0559547958A95E2F7CA01817072
:10189000EC81FD8180832BC0E3E3F0E08081282F81
:1018A00030E08A81882F90E0A90102C055954795C4
:1018B0008A95E2F7CA018170EC81FD81808317C0AF
:1018C000E0E3F0E08081282F30E08A81882F90E0EB
:1018D000A90102C0559547958A95E2F7CA01817022
:1018E000EC81FD81808303C0198201C01982898146
:1018F00027960FB6F894DEBF0FBECDBFCF91DF9114
:101900000895DF93CF9300D000D000D0CDB7DEB7DD
:101910008A836B834C8381E089838A81853008F0D8
:10192000C9C08B81282F30E03E832D836D817E815D
:101930006130710509F441C08D819E81823091052D
:1019400034F42D813E812115310571F0B1C06D81D6
:101950007E816230710509F459C08D819E8183308A
:10196000910509F47CC0A4C0ABE3B0E0EBE3F0E088
:101970008081482F8A81282F30E08FE090E002C0DC
:10198000880F991F2A95E2F7809584238C93ABE307
:10199000B0E0EBE3F0E08081482F8C81282F30E02D
:1019A0008A81882F90E0B90102C0660F771F8A955F
:1019B000E2F7CB01842B8C937EC0A8E3B0E0E8E390
:1019C000F0E08081482F8A81282F30E08FE090E07E
:1019D00002C0880F991F2A95E2F7809584238C9383
:1019E000A8E3B0E0E8E3F0E08081482F8C81282F65
:1019F00030E08A81882F90E0B90102C0660F771F1E
:101A00008A95E2F7CB01842B8C9355C0A5E3B0E017
:101A1000E5E3F0E08081482F8A81282F30E08FE0D5
:101A200090E002C0880F991F2A95E2F780958423E1
:101A30008C93A5E3B0E0E5E3F0E08081482F8C8152
:101A4000282F30E08A81882F90E0B90102C0660F0C
:101A5000771F8A95E2F7CB01842B8C932CC0A2E3ED
:101A6000B0E0E2E3F0E08081482F8A81282F30E067
:101A70008FE090E002C0880F991F2A95E2F78095C9
:101A800084238C93A2E3B0E0E2E3F0E08081482F6E
:101A90008C81282F30E08A81882F90E0B90102C024
:101AA000660F771F8A95E2F7CB01842B8C9303C0D6
:101AB000198201C01982898126960FB6F894DEBF7B
:101AC0000FBECDBFCF91DF910895DF93CF9300D0AC
:101AD000CDB7DEB789836A8389816A8140E00E943D
:101AE0004B0989816A8141E00E949E0A0F900F9004
:101AF000CF91DF910895DF93CF93CDB7DEB7A7E203
:101B0000B0E0E7E2F0E0808180648C93A7E2B0E08F
:101B1000E7E2F0E080818F778C93A6E2B0E0E6E226
:101B2000F0E08081887F8C93A6E2B0E0E6E2F0E00E
:101B3000808181608C93A7E2B0E0E7E2F0E08081F1
:101B40008F7D8C93A6E2B0E0E6E2F0E080818068D1
:101B50008C93CF91DF910895DF93CF930F92CDB700
:101B6000DEB78983898187708983A7E2B0E0E7E2E5
:101B7000F0E08081807E8C93A7E2B0E0E7E2F0E0C5
:101B800090818981892B8C93A6E2B0E0E6E2F0E0B7
:101B9000808180648C93E6E2F0E0808182958F7092
:101BA000882F90E0817090700097A9F3E4E2F0E054
:101BB000808191810F90CF91DF910895DF93CF9332
:101BC000CDB7DEB7AFE5B0E0EFE5F0E0808180684B
:101BD0008C93CF91DF910895DF93CF93CDB7DEB78C
:101BE000AFE5B0E0EFE5F0E080818F778C93CF91A7
:101BF000DF910895DF93CF93CDB7DEB7A5E5B0E0D1
:101C0000E5E5F0E0808182608C93A5E5B0E0E5E554
:101C1000F0E0808181608C93CF91DF910895DF9314
:101C2000CF93CDB7DEB7A5E5B0E0E5E5F0E0808184
:101C300088608C93A5E5B0E0E5E5F0E080818B7FDE
:101C40008C93CF91DF910895DF93CF93CDB7DEB71B
:101C5000A4E5B0E0E4E5F0E080818F7B8C93CF9148
:101C6000DF910895DF93CF9300D000D0CDB7DEB7DA
:101C70008A8381E089838A81282F30E03C832B830B
:101C80008B819C818130910589F02B813C812230B0
:101C90003105A1F08B819C810097C1F4ABE5B0E0E8
:101CA000EBE5F0E0808180648C9311C0ABE5B0E09F
:101CB000EBE5F0E0808180688C9309C0ABE5B0E093
:101CC000EBE5F0E0808180628C9301C0198289810C
:101CD0000F900F900F900F90CF91DF910895DF93A9
:101CE000CF9300D000D0CDB7DEB78A8381E089835F
:101CF0008A81282F30E03C832B838B819C8181302B
:101D0000910589F02B813C8122303105A1F08B8136
:101D10009C810097C1F4ABE5B0E0EBE5F0E0808199
:101D20008F7B8C9311C0ABE5B0E0EBE5F0E08081F8
:101D30008F778C9309C0ABE5B0E0EBE5F0E08081F4
:101D40008F7D8C9301C0198289810F900F900F9025
:101D50000F90CF91DF910895DF93CF93CDB7DEB78A
:101D60002D970FB6F894DEBF0FBECDBF8A836B836D
:101D700081E089838B81282F30E03D872C878C85FB
:101D80009D858230910509F44EC02C853D85233018
:101D9000310534F48C859D858130910571F0EFC05B
:101DA0002C853D852330310509F473C08C859D85D4
:101DB0008430910509F4A8C0E2C08A81282F30E060
:101DC0003B872A878A859B8581309105C1F02A85CA
:101DD0003B852230310511F18A859B85009709F5F5
:101DE000A5E5B0E0E5E5F0E080818D7F8C93A5E589
:101DF000B0E0E5E5F0E080818E7F8C93C1C0A5E581
:101E0000B0E0E5E5F0E08081877F8C93A5E5B0E068
:101E1000E5E5F0E080818B7F8C93B2C082E089831E
:101E2000AFC01982ADC08A81282F30E0398728875A
:101E30008885998581309105C1F0288539852230C2
:101E4000310511F188859985009709F5A5E5B0E080
:101E5000E5E5F0E080818D7F8C93A5E5B0E0E5E5D8
:101E6000F0E0808181608C938BC0A5E5B0E0E5E572
:101E7000F0E08081877F8C93A5E5B0E0E5E5F0E0B8
:101E8000808184608C937CC082E0898379C01982D0
:101E900077C08A81282F30E03F832E838E819F81F7
:101EA00081309105C1F02E813F812230310511F141
:101EB0008E819F81009731F5A5E5B0E0E5E5F0E082
:101EC000808182608C93A5E5B0E0E5E5F0E080815B
:101ED0008E7F8C9355C0A5E5B0E0E5E5F0E080810C
:101EE00088608C93A5E5B0E0E5E5F0E080818B7F2C
:101EF0008C9346C0A4E5B0E0E4E5F0E080818F7B00
:101F00008C933EC019823CC08A81282F30E03D83EB
:101F10002C838C819D8181309105C1F02C813D8184
:101F20002230310511F18C819D81009731F5A5E5B5
:101F3000B0E0E5E5F0E0808182608C93A5E5B0E05B
:101F4000E5E5F0E0808181608C931AC0A5E5B0E002
:101F5000E5E5F0E0808188608C93A5E5B0E0E5E5FB
:101F6000F0E0808184608C930BC0A4E5B0E0E4E5F0
:101F7000F0E0808180648C9303C0198201C01982D3
:101F800089812D960FB6F894DEBF0FBECDBFCF91DD
:101F9000DF910895DF93CF9300D00F92CDB7DEB7D6
:101FA0009B838A8381E089838A819B81009739F0B2
:101FB0008A819B819093C3008093C20002C081E01C
:101FC000898389810F900F900F90CF91DF910895B1
:101FD000DF93CF9300D00F92CDB7DEB79B838A8378
:101FE00081E089838A819B81009739F08A819B8176
:101FF0009093C3008093C20002C081E089838981ED
:102000000F900F900F90CF91DF910895DF93CF93B2
:1020100000D00F92CDB7DEB79B838A8381E089839E
:102020008A819B81009739F08A819B819093C300BC
:102030008093C20002C081E0898389810F900F9054
:102040000F90CF91DF9108951F920F920FB60F92CC
:1020500011242F933F934F935F936F937F938F93AD
:102060009F93AF93BF93EF93FF93DF93CF93CDB73E
:10207000DEB78091C2009091C300009729F0E091F3
:10208000C200F091C3000995CF91DF91FF91EF91CC
:10209000BF91AF919F918F917F916F915F914F9180
:1020A0003F912F910F900FBE0F901F9018951F9288
:1020B0000F920FB60F9211242F933F934F935F937C
:1020C0006F937F938F939F93AF93BF93EF93FF9300
:1020D000DF93CF93CDB7DEB78091C4009091C50058
:1020E000009729F0E091C400F091C5000995CF91C7
:1020F000DF91FF91EF91BF91AF919F918F917F9170
:102100006F915F914F913F912F910F900FBE0F9064
:102110001F9018951F920F920FB60F9211242F93B4
:102120003F934F935F936F937F938F939F93AF935F
:10213000BF93EF93FF93DF93CF93CDB7DEB780913B
:10214000C6009091C700009729F0E091C600F09179
:10215000C7000995CF91DF91FF91EF91BF91AF91AA
:102160009F918F917F916F915F914F913F912F91AF
:102170000F900FBE0F901F901895DF93CF93CDB7A0
:10218000DEB727970FB6F894DEBF0FBECDBF9F8393
:102190008E8381E08C831B828E819F81009709F45E
:1021A0006AC0EE81FF818FEF80831A825FC08A81CF
:1021B000882F90E0FC01E354FF4F808163E040E012
:1021C0000E949E0A19823DC08981882F90E0FC01FF
:1021D000E754FF4F80819E012B5F3F4F63E0A901D1
:1021E0000E94E90B8D81882349F58A81482F50E0B0
:1021F0008981282F30E0CA01880F991F880F991F05
:10220000820F931FFC01E755FF4F8081EE81FF8114
:1022100080830EC08981882F90E0FC01E754FF4F36
:1022200080819E012B5F3F4F63E0A9010E94E90B73
:102230008D81882379F381E08B8307C089818F5F4B
:1022400089838981843008F4BFCF8A81882F90E008
:10225000FC01E354FF4F808163E041E00E949E0A4D
:102260008B81813049F08A818F5F8A838A818430B3
:1022700008F49DCF01C01C828C8127960FB6F8947C
:10228000DEBF0FBECDBFCF91DF910895DF93CF9317
:1022900000D0CDB7DEB79A838983E981FA81818145
:1022A000E981FA819081692F0E94650D0F900F904E
:1022B000CF91DF910895DF93CF9300D00F92CDB7E8
:1022C000DEB79B838A8381E08983EA81FB818181F8
:1022D000EA81FB819081692F9E012F5F3F4FA90109
:1022E0000E94E90B89810F900F900F90CF91DF91A1
:1022F0000895DF93CF9300D0CDB7DEB79A8389835B
:10230000E981FA8180816FEF0E944E0A0F900F9051
:10231000CF91DF910895DF93CF9300D00F92CDB787
:10232000DEB79A8389836B83E981FA818181813069
:1023300031F4E981FA8180816B810E94A10BE981EE
:10234000FA818181882351F4E981FA8120818B818E
:10235000982F9095822F692F0E94A10B0F900F90BC
:102360000F90CF91DF910895DF93CF93CDB7DEB774
:1023700027970FB6F894DEBF0FBECDBF9A8389832F
:102380006B83E981FA818181813009F09BC08B8167
:10239000282F30E03F832E838E819F8184309105EA
:1023A00009F45FC02E813F8125303105DCF48E8138
:1023B0009F818130910509F43FC02E813F812230F9
:1023C00031052CF48E819F81009779F174C02E81A4
:1023D0003F8122303105B9F18E819F818330910593
:1023E000C9F169C02E813F812730310509F44EC003
:1023F0008E819F81883091055CF42E813F8125304C
:102400003105B1F18E819F8186309105C1F153C0B4
:102410002E813F812830310509F43FC08E819F8194
:102420008930910509F440C046C0E981FA81808174
:102430006FE30E94A10BE6C0E981FA81808166E02A
:102440000E94A10BDFC0E981FA8180816BE50E94C7
:10245000A10BD8C0E981FA8180816FE40E94A10BB1
:10246000D1C0E981FA81808166E60E94A10BCAC0D1
:10247000E981FA8180816DE60E94A10BC3C0E981E8
:10248000FA8180816DE70E94A10BBCC0E981FA81CD
:10249000808167E00E94A10BB5C0E981FA8180814B
:1024A0006FE70E94A10BAEC0E981FA8180816FE6DF
:1024B0000E94A10BA7C0E981FA81808169E70E948F
:1024C000A10BA0C0E981FA818181882309F09AC01B
:1024D0008B81282F30E03D832C838C819D8184303B
:1024E000910509F45FC02C813D8125303105DCF474
:1024F0008C819D818130910509F43FC02C813D8103
:10250000223031052CF48C819D81009779F174C0C3
:102510002C813D8122303105B9F18C819D81833040
:102520009105C9F169C02C813D812730310509F43D
:102530004EC08C819D81883091055CF42C813D8159
:1025400025303105B1F18C819D8186309105C1F135
:1025500053C02C813D812830310509F43FC08C8166
:102560009D818930910509F440C046C0E981FA8116
:10257000808160EC0E94A10B45C0E981FA818081D5
:1025800069EF0E94A10B3EC0E981FA81808164EA73
:102590000E94A10B37C0E981FA81808160EB0E9423
:1025A000A10B30C0E981FA81808169E90E94A10B09
:1025B00029C0E981FA81808162E90E94A10B22C0D1
:1025C000E981FA81808162E80E94A10B1BC0E98148
:1025D000FA81808168EF0E94A10B14C0E981FA8121
:1025E000808160E80E94A10B0DC0E981FA818081A1
:1025F00060E90E94A10B06C0E981FA81808166E84A
:102600000E94A10B27960FB6F894DEBF0FBECDBF78
:10261000CF91DF910895DF93CF9300D0CDB7DEB790
:102620009A838983E981FA818181E981FA819081A4
:10263000692F41E00E944B090F900F90CF91DF91DD
:102640000895DF93CF9300D0CDB7DEB79A83898307
:10265000E981FA818181E981FA819081692F41E0E4
:102660000E949E0A0F900F90CF91DF910895DF9303
:10267000CF9300D0CDB7DEB79A838983E981FA8101
:102680008181E981FA819081692F40E00E949E0A50
:102690000F900F90CF91DF910895DF93CF9300D0EB
:1026A000CDB7DEB79A8389838091C800882371F4FF
:1026B000E981FA818181E981FA819081692F41E084
:1026C0000E949E0A81E08093C8000CC0E981FA81D3
:1026D0008181E981FA819081692F40E00E949E0A00
:1026E0001092C8000F900F90CF91DF910895DF9363
:1026F000CF93CDB7DEB76D970FB6F894DEBF0FBEA0
:10270000CDBF8D8F80E062E040E00E949E0A81E0B4
:1027100062E040E00E949E0A82E06D8D0E94A10B63
:1027200082E062E041E00E949E0A80E090E0A0E04A
:10273000B0E4898F9A8FAB8FBC8F698D7A8D8B8D2A
:102740009C8D20E030E04AEF54E40E941F02DC013F
:10275000CB018D8B9E8BAF8BB88F6D897E898F89D6
:10276000988D20E030E040E85FE30E947903882301
:102770002CF481E090E09C8B8B8B3FC06D897E892F
:102780008F89988D20E03FEF4FE757E40E941903AF
:1027900018164CF5698D7A8D8B8D9C8D20E030E07C
:1027A00040E251E40E941F02DC01CB01BC01CD01DB
:1027B0000E944900DC01CB019C8B8B8B0FC088EC05
:1027C00090E09A8B898B89899A890197F1F79A8B86
:1027D000898B8B899C8901979C8B8B8B8B899C899E
:1027E000009769F714C06D897E898F89988D0E9442
:1027F0004900DC01CB019C8B8B8B8B899C89988B4E
:102800008F878F8598890197F1F7988B8F8782E062
:1028100062E040E00E949E0A80E090E0A0E0B0E428
:102820008B879C87AD87BE876B857C858D859E85D4
:1028300020E030E04AEF54E40E941F02DC01CB01AB
:102840008F839887A987BA876F81788589859A85CC
:1028500020E030E040E85FE30E94790388232CF415
:1028600081E090E09E838D833FC06F81788589856C
:102870009A8520E03FEF4FE757E40E9419031816AE
:102880004CF56B857C858D859E8520E030E040E2AF
:1028900051E40E941F02DC01CB01BC01CD010E946A
:1028A0004900DC01CB019E838D830FC088EC90E052
:1028B0009C838B838B819C810197F1F79C838B8315
:1028C0008D819E8101979E838D838D819E8100974E
:1028D00069F714C06F81788589859A850E944900BF
:1028E000DC01CB019E838D838D819E819A838983B8
:1028F00089819A810197F1F79A83898382E062E066
:1029000041E00E949E0A6D960FB6F894DEBF0FBE9E
:10291000CDBFCF91DF910895DF93CF93CDB7DEB7D1
:10292000E8970FB6F894DEBF0FBECDBF82E06FEF21
:102930000E944E0A80E062E041E00E944B0981E083
:1029400062E041E00E944B0982E062E041E00E94C7
:102950004B0980E090E0A0EFB1E48DAB9EABAFAB54
:10296000B8AF6DA97EA98FA998AD20E030E04AEFFD
:1029700054E40E941F02DC01CB0189AB9AABABABE4
:10298000BCAB69A97AA98BA99CA920E030E040E8FA
:102990005FE30E94790388232CF481E090E098ABF8
:1029A0008FA73FC069A97AA98BA99CA920E03FEF16
:1029B0004FE757E40E94190318164CF56DA97EA93C
:1029C0008FA998AD20E030E040E251E40E941F0260
:1029D000DC01CB01BC01CD010E944900DC01CB012F
:1029E00098AB8FA70FC088EC90E09EA78DA78DA510
:1029F0009EA50197F1F79EA78DA78FA598A901978E
:102A000098AB8FA78FA598A9009769F714C069A9FB
:102A10007AA98BA99CA90E944900DC01CB0198AB43
:102A20008FA78FA598A99CA78BA78BA59CA501977D
:102A3000F1F79CA78BA788E20E94771380E090E0D3
:102A4000A0E8BFE38FA398A7A9A7BAA76FA178A50D
:102A500089A59AA520E030E04AEF54E40E941F02C5
:102A6000DC01CB018BA39CA3ADA3BEA36BA17CA176
:102A70008DA19EA120E030E040E85FE30E94790351
:102A800088232CF481E090E09AA389A33FC06BA136
:102A90007CA18DA19EA120E03FEF4FE757E40E946B
:102AA000190318164CF56FA178A589A59AA520E001
:102AB00030E040E251E40E941F02DC01CB01BC0186
:102AC000CD010E944900DC01CB019AA389A30FC06C
:102AD00088EC90E098A38F8F8F8D98A10197F1F7E4
:102AE00098A38F8F89A19AA101979AA389A389A1FD
:102AF0009AA1009769F714C06BA17CA18DA19EA13A
:102B00000E944900DC01CB019AA389A389A19AA163
:102B10009E8F8D8F8D8D9E8D0197F1F79E8F8D8F5E
:102B20008CE00E94771380E090E0A0E8BFE3898FFB
:102B30009A8FAB8FBC8F698D7A8D8B8D9C8D20E0A9
:102B400030E04AEF54E40E941F02DC01CB018D8B80
:102B50009E8BAF8BB88F6D897E898F89988D20E091
:102B600030E040E85FE30E94790388232CF481E0A1
:102B700090E09C8B8B8B3FC06D897E898F89988D6F
:102B800020E03FEF4FE757E40E94190318164CF579
:102B9000698D7A8D8B8D9C8D20E030E040E251E490
:102BA0000E941F02DC01CB01BC01CD010E94490043
:102BB000DC01CB019C8B8B8B0FC088EC90E09A8B57
:102BC000898B89899A890197F1F79A8B898B8B89EF
:102BD0009C8901979C8B8B8B8B899C89009769F7CB
:102BE00014C06D897E898F89988D0E944900DC010F
:102BF000CB019C8B8B8B8B899C89988B8F878F8546
:102C000098890197F1F7988B8F8781E00E9477135D
:102C100080E090E0A0E0B0E48B879C87AD87BE8722
:102C20006B857C858D859E8520E030E04AEF54E4FD
:102C30000E941F02DC01CB018F839887A987BA8786
:102C40006F81788589859A8520E030E040E85FE3F0
:102C50000E94790388232CF481E090E09E838D8389
:102C60003FC06F81788589859A8520E03FEF4FE7E7
:102C700057E40E94190318164CF56B857C858D85E9
:102C80009E8520E030E040E251E40E941F02DC011A
:102C9000CB01BC01CD010E944900DC01CB019E8328
:102CA0008D830FC088EC90E09C838B838B819C810B
:102CB0000197F1F79C838B838D819E8101979E8381
:102CC0008D838D819E81009769F714C06F8178850F
:102CD00089859A850E944900DC01CB019E838D8302
:102CE0008D819E819A83898389819A810197F1F7E9
:102CF0009A83898386E00E947713E8960FB6F8944A
:102D0000DEBF0FBECDBFCF91DF910895DF93CF938C
:102D1000CDB7DEB76D970FB6F894DEBF0FBECDBF4F
:102D20008D8F80E062E041E00E949E0A81E062E0D7
:102D300040E00E949E0A82E06D8D0E94A10B82E01D
:102D400062E041E00E949E0A80E090E0A0E0B0E4F2
:102D5000898F9A8FAB8FBC8F698D7A8D8B8D9C8D6F
:102D600020E030E04AEF54E40E941F02DC01CB0176
:102D70008D8B9E8BAF8BB88F6D897E898F89988D57
:102D800020E030E040E85FE30E94790388232CF4E0
:102D900081E090E09C8B8B8B3FC06D897E898F8911
:102DA000988D20E03FEF4FE757E40E941903181673
:102DB0004CF5698D7A8D8B8D9C8D20E030E040E262
:102DC00051E40E941F02DC01CB01BC01CD010E9435
:102DD0004900DC01CB019C8B8B8B0FC088EC90E011
:102DE0009A8B898B89899A890197F1F79A8B898BBC
:102DF0008B899C8901979C8B8B8B8B899C890097F5
:102E000069F714C06D897E898F89988D0E94490069
:102E1000DC01CB019C8B8B8B8B899C89988B8F875A
:102E20008F8598890197F1F7988B8F8782E062E010
:102E300040E00E949E0A80E090E0A0E0B0E48B8732
:102E40009C87AD87BE876B857C858D859E8520E0C0
:102E500030E04AEF54E40E941F02DC01CB018F8373
:102E60009887A987BA876F81788589859A8520E0B8
:102E700030E040E85FE30E94790388232CF481E08E
:102E800090E09E838D833FC06F81788589859A8588
:102E900020E03FEF4FE757E40E94190318164CF566
:102EA0006B857C858D859E8520E030E040E251E495
:102EB0000E941F02DC01CB01BC01CD010E94490030
:102EC000DC01CB019E838D830FC088EC90E09C8356
:102ED0008B838B819C810197F1F79C838B838D8100
:102EE0009E8101979E838D838D819E81009769F7D6
:102EF00014C06F81788589859A850E944900DC011C
:102F0000CB019E838D838D819E819A838983898164
:102F10009A810197F1F79A83898382E062E041E028
:102F20000E949E0A6D960FB6F894DEBF0FBECDBF0D
:102F3000CF91DF910895DF93CF9300D00F92CDB75B
:102F4000DEB79B838A8319820EC08981282F30E0E7
:102F50008A819B81FC01E20FF31F80810E9486160B
:102F600089818F5F89838981282F30E08A819B81C5
:102F7000FC01E20FF31F8081882339F70F900F9037
:102F80000F90CF91DF9108950F931F93DF93CF930D
:102F9000CDB7DEB760970FB6F894DEBF0FBECDBFDA
:102FA0006D877E878F87988B1A828D859E85AF85EA
:102FB000B8890097A105B10509F44FC02DC08A81D9
:102FC000082F10E08D859E85AF85B8892AE030E016
:102FD00040E050E0BC01CD010E945229DC01CB0150
:102FE000282FCE010396FC01E00FF11F20838D8571
:102FF0009E85AF85B8892AE030E040E050E0BC0112
:10300000CD010E945229DA01C9018D879E87AF87C1
:10301000B88B8A818F5F8A838D859E85AF85B889BD
:103020000097A105B10559F68A818150898311C0A5
:103030008981282F332727FD3095CE010396FC0187
:10304000E20FF31F8081805D0E9486168981815086
:1030500089838981882364F703C080E30E948616F0
:1030600060960FB6F894DEBF0FBECDBFCF91DF9153
:103070001F910F910895DF93CF9300D0CDB7DEB7A6
:1030800089836A838981813041F48A81803128F47F
:103090008A8180580E9477130AC08981823039F46E
:1030A0008A81803120F48A8180540E9477130F90A6
:1030B0000F90CF91DF910895DF93CF9300D000D090
:1030C000CDB7DEB78A837C836B838A818830F8F43E
:1030D0008A81882F90E00896880F991F880F991F82
:1030E000880F991F0E94771319820EC08981282F9B
:1030F00030E08B819C81FC01E20FF31F80810E94F4
:10310000861689818F5F89838981883078F30F9053
:103110000F900F900F90CF91DF910895DF93CF9391
:10312000CDB7DEB72E970FB6F894DEBF0FBECDBF7A
:1031300081E00E94771380E090E0A0E0B0E48B870C
:103140009C87AD87BE876B857C858D859E8520E0BD
:1031500030E04AEF54E40E941F02DC01CB018F8370
:103160009887A987BA876F81788589859A8520E0B5
:1031700030E040E85FE30E94790388232CF481E08B
:1031800090E09E838D833FC06F81788589859A8585
:1031900020E03FEF4FE757E40E94190318164CF563
:1031A0006B857C858D859E8520E030E040E251E492
:1031B0000E941F02DC01CB01BC01CD010E9449002D
:1031C000DC01CB019E838D830FC088EC90E09C8353
:1031D0008B838B819C810197F1F79C838B838D81FD
:1031E0009E8101979E838D838D819E81009769F7D3
:1031F00014C06F81788589859A850E944900DC0119
:10320000CB019E838D838D819E819A838983898161
:103210009A810197F1F79A8389832E960FB6F894D5
:10322000DEBF0FBECDBFCF91DF910895DF93CF9367
:10323000CDB7DEB760970FB6F894DEBF0FBECDBF37
:10324000888B1F8678C088E10E94771380E090E029
:10325000A6E9B3E48B879C87AD87BE876B857C85A9
:103260008D859E8520E030E04AEF54E40E941F02E5
:10327000DC01CB018F839887A987BA876F81788516
:1032800089859A8520E030E040E85FE30E94790379
:1032900088232CF481E090E09E838D833FC06F8172
:1032A000788589859A8520E03FEF4FE757E40E94B3
:1032B000190318164CF56B857C858D859E8520E05D
:1032C00030E040E251E40E941F02DC01CB01BC016E
:1032D000CD010E944900DC01CB019E838D830FC08C
:1032E00088EC90E09C838B838B819C810197F1F724
:1032F0009C838B838D819E8101979E838D838D819D
:103300009E81009769F714C06F81788589859A85B9
:103310000E944900DC01CB019E838D838D819E81BB
:103320009A83898389819A810197F1F79A838983A6
:103330008F858F5F8F879F858889981708F483CF43
:1033400060960FB6F894DEBF0FBECDBFCF91DF9170
:103350000895DF93CF93CDB7DEB760970FB6F8949B
:10336000DEBF0FBECDBF888B1F8678C08CE10E9468
:10337000771380E090E0A6E9B3E48B879C87AD8764
:10338000BE876B857C858D859E8520E030E04AEF89
:1033900054E40E941F02DC01CB018F839887A98728
:1033A000BA876F81788589859A8520E030E040E88A
:1033B0005FE30E94790388232CF481E090E09E83F0
:1033C0008D833FC06F81788589859A8520E03FEFA6
:1033D0004FE757E40E94190318164CF56B857C855E
:1033E0008D859E8520E030E040E251E40E941F027E
:1033F000DC01CB01BC01CD010E944900DC01CB0105
:103400009E838D830FC088EC90E09C838B838B819F
:103410009C810197F1F79C838B838D819E8101971D
:103420009E838D838D819E81009769F714C06F8183
:10343000788589859A850E944900DC01CB019E83AD
:103440008D838D819E819A83898389819A81019759
:10345000F1F79A8389838F858F5F8F879F8588890E
:10346000981708F483CF60960FB6F894DEBF0FBEAE
:10347000CDBFCF91DF910895DF93CF93CDB7DEB766
:1034800060970FB6F894DEBF0FBECDBF888B1F8646
:1034900078C080E10E94771380E090E0A6E9B3E471
:1034A0008B879C87AD87BE876B857C858D859E8548
:1034B00020E030E04AEF54E40E941F02DC01CB011F
:1034C0008F839887A987BA876F81788589859A8540
:1034D00020E030E040E85FE30E94790388232CF489
:1034E00081E090E09E838D833FC06F8178858985E0
:1034F0009A8520E03FEF4FE757E40E941903181622
:103500004CF56B857C858D859E8520E030E040E222
:1035100051E40E941F02DC01CB01BC01CD010E94DD
:103520004900DC01CB019E838D830FC088EC90E0C5
:103530009C838B838B819C810197F1F79C838B8388
:103540008D819E8101979E838D838D819E810097C1
:1035500069F714C06F81788589859A850E94490032
:10356000DC01CB019E838D838D819E819A8389832B
:1035700089819A810197F1F79A8389838F858F5F7B
:103580008F879F858889981708F483CF60960FB638
:10359000F894DEBF0FBECDBFCF91DF910895DF93CA
:1035A000CF93CDB7DEB760970FB6F894DEBF0FBEEE
:1035B000CDBF888B1F8678C084E10E94771380E09E
:1035C00090E0A6E9B3E48B879C87AD87BE876B85C7
:1035D0007C858D859E8520E030E04AEF54E40E9492
:1035E0001F02DC01CB018F839887A987BA876F817F
:1035F000788589859A8520E030E040E85FE30E9485
:10360000790388232CF481E090E09E838D833FC072
:103610006F81788589859A8520E03FEF4FE757E4F1
:103620000E94190318164CF56B857C858D859E8547
:1036300020E030E040E251E40E941F02DC01CB01B7
:10364000BC01CD010E944900DC01CB019E838D832A
:103650000FC088EC90E09C838B838B819C810197C9
:10366000F1F79C838B838D819E8101979E838D834F
:103670008D819E81009769F714C06F817885898557
:103680009A850E944900DC01CB019E838D838D8148
:103690009E819A83898389819A810197F1F79A8320
:1036A00089838F858F5F8F879F858889981708F416
:1036B00083CF60960FB6F894DEBF0FBECDBFCF911B
:1036C000DF910895DF93CF93CDB7DEB72F970FB675
:1036D000F894DEBF0FBECDBF8F8780E062E040E090
:1036E0000E949E0A81E062E040E00E949E0A84E01F
:1036F00062E04F850E94810C82E062E041E00E941E
:103700009E0A80E090E0A0E0B0E48B879C87AD87C4
:10371000BE876B857C858D859E8520E030E04AEFF5
:1037200054E40E941F02DC01CB018F839887A98794
:10373000BA876F81788589859A8520E030E040E8F6
:103740005FE30E94790388232CF481E090E09E835C
:103750008D833FC06F81788589859A8520E03FEF12
:103760004FE757E40E94190318164CF56B857C85CA
:103770008D859E8520E030E040E251E40E941F02EA
:10378000DC01CB01BC01CD010E944900DC01CB0171
:103790009E838D830FC088EC90E09C838B838B810C
:1037A0009C810197F1F79C838B838D819E8101978A
:1037B0009E838D838D819E81009769F714C06F81F0
:1037C000788589859A850E944900DC01CB019E831A
:1037D0008D838D819E819A83898389819A810197C6
:1037E000F1F79A83898382E062E040E00E949E0ABA
:1037F0002F960FB6F894DEBF0FBECDBFCF91DF91ED
:103800000895DF93CF93CDB7DEB7E9970FB6F8945D
:10381000DEBF0FBECDBF87E089AF08C089AD62E0D3
:1038200041E00E944B0989AD815089AF89AD843058
:10383000ACF780E062E041E00E944B0981E062E089
:1038400041E00E944B0982E062E041E00E944B09A6
:1038500080E090E0A0EFB1E48DAB9EABAFABB8AF32
:103860006DA97EA98FA998AD20E030E04AEF54E41D
:103870000E941F02DC01CB0189AB9AABABABBCABA6
:1038800069A97AA98BA99CA920E030E040E85FE310
:103890000E94790388232CF481E090E098AB8FA7F5
:1038A0003FC069A97AA98BA99CA920E03FEF4FE707
:1038B00057E40E94190318164CF56DA97EA98FA92B
:1038C00098AD20E030E040E251E40E941F02DC01AC
:1038D000CB01BC01CD010E944900DC01CB0198ABBA
:1038E0008FA70FC088EC90E09EA78DA78DA59EA501
:1038F0000197F1F79EA78DA78FA598A9019798AB7F
:103900008FA78FA598A9009769F714C069A97AA90C
:103910008BA99CA90E944900DC01CB0198AB8FA721
:103920008FA598A99CA78BA78BA59CA50197F1F7BC
:103930009CA78BA782E00E94621B82E00E94621B10
:1039400088E20E94621B80E090E0A0E8BFE38FA3C2
:1039500098A7A9A7BAA76FA178A589A59AA520E0DD
:1039600030E04AEF54E40E941F02DC01CB018BA33C
:103970009CA3ADA3BEA36BA17CA18DA19EA120E0C1
:1039800030E040E85FE30E94790388232CF481E073
:1039900090E09AA389A33FC06BA17CA18DA19EA1B9
:1039A00020E03FEF4FE757E40E94190318164CF54B
:1039B0006FA178A589A59AA520E030E040E251E406
:1039C0000E941F02DC01CB01BC01CD010E94490015
:1039D000DC01CB019AA389A30FC088EC90E098A3E7
:1039E0008F8F8F8D98A10197F1F798A38F8F89A161
:1039F0009AA101979AA389A389A19AA1009769F72F
:103A000014C06BA17CA18DA19EA10E944900DC0184
:103A1000CB019AA389A389A19AA19E8F8D8F8D8DA9
:103A20009E8D0197F1F79E8F8D8F80E00E94621B23
:103A30008CE00E94621B80E090E0A0E8BFE3898FE9
:103A40009A8FAB8FBC8F698D7A8D8B8D9C8D20E08A
:103A500030E04AEF54E40E941F02DC01CB018D8B61
:103A60009E8BAF8BB88F6D897E898F89988D20E072
:103A700030E040E85FE30E94790388232CF481E082
:103A800090E09C8B8B8B3FC06D897E898F89988D50
:103A900020E03FEF4FE757E40E94190318164CF55A
:103AA000698D7A8D8B8D9C8D20E030E040E251E471
:103AB0000E941F02DC01CB01BC01CD010E94490024
:103AC000DC01CB019C8B8B8B0FC088EC90E09A8B38
:103AD000898B89899A890197F1F79A8B898B8B89D0
:103AE0009C8901979C8B8B8B8B899C89009769F7AC
:103AF00014C06D897E898F89988D0E944900DC01F0
:103B0000CB019C8B8B8B8B899C89988B8F878F8526
:103B100098890197F1F7988B8F8780E00E94621B4C
:103B200081E00E94621B80E090E0A0E0B0E48B871F
:103B30009C87AD87BE876B857C858D859E8520E0C3
:103B400030E04AEF54E40E941F02DC01CB018F8376
:103B50009887A987BA876F81788589859A8520E0BB
:103B600030E040E85FE30E94790388232CF481E091
:103B700090E09E838D833FC06F81788589859A858B
:103B800020E03FEF4FE757E40E94190318164CF569
:103B90006B857C858D859E8520E030E040E251E498
:103BA0000E941F02DC01CB01BC01CD010E94490033
:103BB000DC01CB019E838D830FC088EC90E09C8359
:103BC0008B838B819C810197F1F79C838B838D8103
:103BD0009E8101979E838D838D819E81009769F7D9
:103BE00014C06F81788589859A850E944900DC011F
:103BF000CB019E838D838D819E819A838983898168
:103C00009A810197F1F79A83898380E00E94621B71
:103C100086E00E94621BE9960FB6F894DEBF0FBEE5
:103C2000CDBFCF91DF910895DF93CF93CDB7DEB7AE
:103C30002F970FB6F894DEBF0FBECDBF8F8780E001
:103C400062E041E00E949E0A81E062E040E00E9462
:103C50009E0A84E062E04F850E94810C82E062E06F
:103C600041E00E949E0A80E090E0A0E0B0E48B87F3
:103C70009C87AD87BE876B857C858D859E8520E082
:103C800030E04AEF54E40E941F02DC01CB018F8335
:103C90009887A987BA876F81788589859A8520E07A
:103CA00030E040E85FE30E94790388232CF481E050
:103CB00090E09E838D833FC06F81788589859A854A
:103CC00020E03FEF4FE757E40E94190318164CF528
:103CD0006B857C858D859E8520E030E040E251E457
:103CE0000E941F02DC01CB01BC01CD010E944900F2
:103CF000DC01CB019E838D830FC088EC90E09C8318
:103D00008B838B819C810197F1F79C838B838D81C1
:103D10009E8101979E838D838D819E81009769F797
:103D200014C06F81788589859A850E944900DC01DD
:103D3000CB019E838D838D819E819A838983898126
:103D40009A810197F1F79A83898382E062E040E0EB
:103D50000E949E0A2F960FB6F894DEBF0FBECDBF0D
:103D6000CF91DF910895DF93CF930F92CDB7DEB758
:103D70008983898182958F700E94141E89810E9497
:103D8000141E0F90CF91DF910895DF93CF9300D051
:103D90000F92CDB7DEB79B838A8319820EC08981CB
:103DA000282F30E08A819B81FC01E20FF31F808184
:103DB0000E94B31E89818F5F89838981282F30E01B
:103DC0008A819B81FC01E20FF31F8081882339F7F0
:103DD0000F900F900F90CF91DF9108950F931F9345
:103DE000DF93CF93CDB7DEB760970FB6F894DEBF01
:103DF0000FBECDBF6D877E878F87988B1A828D858A
:103E00009E85AF85B8890097A105B10509F44FC01B
:103E10002DC08A81082F10E08D859E85AF85B889D9
:103E20002AE030E040E050E0BC01CD010E94522980
:103E3000DC01CB01282FCE010396FC01E00FF11F1E
:103E400020838D859E85AF85B8892AE030E040E0EB
:103E500050E0BC01CD010E945229DA01C9018D87D1
:103E60009E87AF87B88B8A818F5F8A838D859E8579
:103E7000AF85B8890097A105B10559F68A818150AF
:103E8000898311C08981282F332727FD3095CE01E2
:103E90000396FC01E20FF31F8081805D0E94B31E38
:103EA0008981815089838981882364F703C080E3F5
:103EB0000E94B31E60960FB6F894DEBF0FBECDBF52
:103EC000CF91DF911F910F910895DF93CF9300D091
:103ED000CDB7DEB789836A8389818130B9F48A815D
:103EE0008031A0F48A81882F90E080589F4F95956B
:103EF00087959595879595958795959587950E9432
:103F0000621B8A8180580E94621B19C0898182309D
:103F1000B1F48A81803198F48A81882F90E08054AE
:103F20009F4F9595879595958795959587959595A7
:103F300087950E94621B8A8180540E94621B0F90A9
:103F40000F90CF91DF910895DF93CF9300D000D0F1
:103F5000CDB7DEB78A837C836B838A81883098F5FE
:103F60008A81882F90E00896880F991F880F991FE3
:103F7000880F991F95958795959587959595879520
:103F8000959587950E94621B8A81882F90E00896FC
:103F9000880F991F880F991F880F991F0E94621B15
:103FA00019820EC08981282F30E08B819C81FC0111
:103FB000E20FF31F80810E94B31E89818F5F898386
:103FC0008981883078F30F900F900F900F90CF91E8
:103FD000DF910895DF93CF93CDB7DEB72E970FB65D
:103FE000F894DEBF0FBECDBF80E00E94621B81E06F
:103FF0000E94621B80E090E0A0E0B0E48B879C8789
:10400000AD87BE876B857C858D859E8520E030E001
:104010004AEF54E40E941F02DC01CB018F83988792
:10402000A987BA876F81788589859A8520E030E0F5
:1040300040E85FE30E94790388232CF481E090E05C
:104040009E838D833FC06F81788589859A8520E026
:104050003FEF4FE757E40E94190318164CF56B85A4
:104060007C858D859E8520E030E040E251E40E9411
:104070001F02DC01CB01BC01CD010E944900DC0123
:10408000CB019E838D830FC088EC90E09C838B8353
:104090008B819C810197F1F79C838B838D819E811D
:1040A00001979E838D838D819E81009769F714C04F
:1040B0006F81788589859A850E944900DC01CB0152
:1040C0009E838D838D819E819A83898389819A8144
:1040D0000197F1F79A8389832E960FB6F894DEBF85
:1040E0000FBECDBFCF91DF910895DF93CF93CDB7B2
:1040F000DEB760970FB6F894DEBF0FBECDBF888BDA
:104100001F867BC081E00E94621B88E10E94621BC7
:1041100080E090E0A6E9B3E48B879C87AD87BE87FB
:104120006B857C858D859E8520E030E04AEF54E4E8
:104130000E941F02DC01CB018F839887A987BA8771
:104140006F81788589859A8520E030E040E85FE3DB
:104150000E94790388232CF481E090E09E838D8374
:104160003FC06F81788589859A8520E03FEF4FE7D2
:1041700057E40E94190318164CF56B857C858D85D4
:104180009E8520E030E040E251E40E941F02DC0105
:10419000CB01BC01CD010E944900DC01CB019E8313
:1041A0008D830FC088EC90E09C838B838B819C81F6
:1041B0000197F1F79C838B838D819E8101979E836C
:1041C0008D838D819E81009769F714C06F817885FA
:1041D00089859A850E944900DC01CB019E838D83ED
:1041E0008D819E819A83898389819A810197F1F7D4
:1041F0009A8389838F858F5F8F879F85888998179A
:1042000008F480CF60960FB6F894DEBF0FBECDBF26
:10421000CF91DF910895DF93CF93CDB7DEB760974D
:104220000FB6F894DEBF0FBECDBF888B1F867BC054
:1042300081E00E94621B8CE10E94621B80E090E0A2
:10424000A6E9B3E48B879C87AD87BE876B857C85A9
:104250008D859E8520E030E04AEF54E40E941F02E5
:10426000DC01CB018F839887A987BA876F81788516
:1042700089859A8520E030E040E85FE30E94790379
:1042800088232CF481E090E09E838D833FC06F8172
:10429000788589859A8520E03FEF4FE757E40E94B3
:1042A000190318164CF56B857C858D859E8520E05D
:1042B00030E040E251E40E941F02DC01CB01BC016E
:1042C000CD010E944900DC01CB019E838D830FC08C
:1042D00088EC90E09C838B838B819C810197F1F724
:1042E0009C838B838D819E8101979E838D838D819D
:1042F0009E81009769F714C06F81788589859A85BA
:104300000E944900DC01CB019E838D838D819E81BB
:104310009A83898389819A810197F1F79A838983A6
:104320008F858F5F8F879F858889981708F480CF46
:1043300060960FB6F894DEBF0FBECDBFCF91DF9170
:104340000895DF93CF93CDB7DEB760970FB6F8949B
:10435000DEBF0FBECDBF888B1F867BC081E00E9471
:10436000621B80E10E94621B80E090E0A6E9B3E45A
:104370008B879C87AD87BE876B857C858D859E8569
:1043800020E030E04AEF54E40E941F02DC01CB0140
:104390008F839887A987BA876F81788589859A8561
:1043A00020E030E040E85FE30E94790388232CF4AA
:1043B00081E090E09E838D833FC06F817885898501
:1043C0009A8520E03FEF4FE757E40E941903181643
:1043D0004CF56B857C858D859E8520E030E040E244
:1043E00051E40E941F02DC01CB01BC01CD010E94FF
:1043F0004900DC01CB019E838D830FC088EC90E0E7
:104400009C838B838B819C810197F1F79C838B83A9
:104410008D819E8101979E838D838D819E810097E2
:1044200069F714C06F81788589859A850E94490053
:10443000DC01CB019E838D838D819E819A8389834C
:1044400089819A810197F1F79A8389838F858F5F9C
:104450008F879F858889981708F480CF60960FB65C
:10446000F894DEBF0FBECDBFCF91DF910895DF93EB
:10447000CF93CDB7DEB760970FB6F894DEBF0FBE0F
:10448000CDBF888B1F867BC081E00E94621B84E1C8
:104490000E94621B80E090E0A6E9B3E48B879C87D2
:1044A000AD87BE876B857C858D859E8520E030E05D
:1044B0004AEF54E40E941F02DC01CB018F839887EE
:1044C000A987BA876F81788589859A8520E030E051
:1044D00040E85FE30E94790388232CF481E090E0B8
:1044E0009E838D833FC06F81788589859A8520E082
:1044F0003FEF4FE757E40E94190318164CF56B8500
:104500007C858D859E8520E030E040E251E40E946C
:104510001F02DC01CB01BC01CD010E944900DC017E
:10452000CB019E838D830FC088EC90E09C838B83AE
:104530008B819C810197F1F79C838B838D819E8178
:1045400001979E838D838D819E81009769F714C0AA
:104550006F81788589859A850E944900DC01CB01AD
:104560009E838D838D819E819A83898389819A819F
:104570000197F1F79A8389838F858F5F8F879F8556
:104580008889981708F480CF60960FB6F894DEBF3C
:104590000FBECDBFCF91DF910895DF93CF93CDB7FD
:1045A000DEB762970FB6F894DEBF0FBECDBF998B12
:1045B000888B6A8B88899989892F992780658F874D
:1045C0000E94F2058F850E94460688890E94B606E1
:1045D0008A890E94B6060E940E0780E090E0A0E261
:1045E000B1E48B879C87AD87BE876B857C858D8585
:1045F0009E8520E030E04AEF54E40E941F02DC0177
:10460000CB018F839887A987BA876F817885898541
:104610009A8520E030E040E85FE30E947903882338
:104620002CF481E090E09E838D833FC06F8178857C
:1046300089859A8520E03FEF4FE757E40E941903F0
:1046400018164CF56B857C858D859E8520E030E0C5
:1046500040E251E40E941F02DC01CB01BC01CD010C
:104660000E944900DC01CB019E838D830FC088EC42
:1046700090E09C838B838B819C810197F1F79C83D5
:104680008B838D819E8101979E838D838D819E81F9
:10469000009769F714C06F81788589859A850E9493
:1046A0004900DC01CB019E838D838D819E819A839D
:1046B000898389819A810197F1F79A838983629628
:1046C0000FB6F894DEBF0FBECDBFCF91DF91089536
:1046D000DF93CF9300D000D0CDB7DEB79C838B8320
:1046E0008B819C81892F9927806589830E94F2059F
:1046F00089810E9446068B810E94B6060E941C0694
:1047000089810E947E06CE0102960E94DF060E94E9
:104710000E078A810F900F900F900F90CF91DF912D
:104720000895DF93CF93CDB7DEB7AF970FB6F89468
:10473000DEBF0FBECDBF84E063E041E00E944B09C5
:1047400083E060E041E00E944B0986E063E041E0E5
:104750000E944B0987E063E041E00E944B0984E03E
:1047600063E041E00E949E0A83E060E041E00E9435
:104770009E0A86E063E041E00E949E0A87E063E0D3
:1047800041E00E949E0A83E063E040E00E944B0902
:1047900081E063E040E00E944B0980E063E040E09C
:1047A0000E944B0982E060E040E00E944B0983E0F8
:1047B00063E041E00E949E0A81E063E041E00E94E4
:1047C0009E0A80E063E041E00E949E0A82E060E091
:1047D00041E00E949E0A83E062E041E00E944B09B2
:1047E00082E063E040E00E944B0982E063E041E048
:1047F0000E949E0A81E06FEF0E944E0A0E94FA0D0D
:1048000088E397E20E94CA0F80E00E94320E0E9465
:10481000DE0D0E947B0D0E94011C0E94EA1F81E0B8
:1048200060E00E94651F80E690E00E94C51E80E067
:1048300090E0AAE7B4E48FA398A7A9A7BAA76FA1AD
:1048400078A589A59AA520E030E04AEF54E40E94BB
:104850001F02DC01CB018BA39CA3ADA3BEA36BA164
:104860007CA18DA19EA120E030E040E85FE30E94A2
:10487000790388232CF481E090E09AA389A33FC0B8
:104880006BA17CA18DA19EA120E03FEF4FE757E4F3
:104890000E94190318164CF56FA178A589A59AA551
:1048A00020E030E040E251E40E941F02DC01CB0135
:1048B000BC01CD010E944900DC01CB019AA389A370
:1048C0000FC088EC90E098A38F8F8F8D98A10197EF
:1048D000F1F798A38F8F89A19AA101979AA389A331
:1048E00089A19AA1009769F714C06BA17CA18DA141
:1048F0009EA10E944900DC01CB019AA389A389A152
:104900009AA19E8F8D8F8D8D9E8D0197F1F79E8F31
:104910008D8F0E94EA1F80E090E0AAE7B4E4898FBF
:104920009A8FAB8FBC8F698D7A8D8B8D9C8D20E09B
:1049300030E04AEF54E40E941F02DC01CB018D8B72
:104940009E8BAF8BB88F6D897E898F89988D20E083
:1049500030E040E85FE30E94790388232CF481E093
:1049600090E09C8B8B8B3FC06D897E898F89988D61
:1049700020E03FEF4FE757E40E94190318164CF56B
:10498000698D7A8D8B8D9C8D20E030E040E251E482
:104990000E941F02DC01CB01BC01CD010E94490035
:1049A000DC01CB019C8B8B8B0FC088EC90E09A8B49
:1049B000898B89899A890197F1F79A8B898B8B89E1
:1049C0009C8901979C8B8B8B8B899C89009769F7BD
:1049D00014C06D897E898F89988D0E944900DC0101
:1049E000CB019C8B8B8B8B899C89988B8F878F8538
:1049F00098890197F1F7988B8F8780E00E94AC0D22
:104A00008FA781E00E94AC0D8EA78FA5882F90E024
:104A1000A0E0B0E028E833E140E050E0BC01CD0187
:104A20000E941F29DC01CB01892F99279DA78CA704
:104A30008CA59DA52AE030E0B9010E943E29CB015A
:104A40008BA78EA5882361F58EA58D3148F580E072
:104A500061E041E00E949E0A81E061E041E00E9445
:104A60009E0A82E061E041E00E949E0A83E061E0EC
:104A700041E00E949E0A84E061E041E00E949E0ABB
:104A800085E061E041E00E949E0A86E061E041E04D
:104A90000E949E0A87E061E041E00E949E0A48C1B0
:104AA0008EA58D3160F18EA5893348F580E061E0F7
:104AB00041E00E949E0A81E061E041E00E949E0A7E
:104AC00082E061E041E00E949E0A83E061E041E013
:104AD0000E949E0A84E061E041E00E949E0A85E017
:104AE00061E041E00E949E0A86E061E041E00E94B0
:104AF0009E0A87E061E040E00E949E0A19C18EA5EF
:104B0000893360F18EA5853548F580E061E041E0AC
:104B10000E949E0A81E061E041E00E949E0A82E0DC
:104B200061E041E00E949E0A83E061E041E00E9472
:104B30009E0A84E061E041E00E949E0A85E061E017
:104B400041E00E949E0A86E061E040E00E949E0AE9
:104B500087E061E040E00E949E0AEAC08EA58535AC
:104B600060F18EA5813748F580E061E041E00E9468
:104B70009E0A81E061E041E00E949E0A82E061E0DD
:104B800041E00E949E0A83E061E041E00E949E0AAB
:104B900084E061E041E00E949E0A85E061E040E03F
:104BA0000E949E0A86E061E040E00E949E0A87E043
:104BB00061E040E00E949E0ABBC08EA5813760F193
:104BC0008EA58D3848F580E061E041E00E949E0AA4
:104BD00081E061E041E00E949E0A82E061E041E004
:104BE0000E949E0A83E061E041E00E949E0A84E008
:104BF00061E040E00E949E0A85E061E040E00E94A2
:104C00009E0A86E061E040E00E949E0A87E061E043
:104C100040E00E949E0A8CC08EA58D3860F18EA562
:104C2000893A48F580E061E041E00E949E0A81E017
:104C300061E041E00E949E0A82E061E041E00E9462
:104C40009E0A83E061E040E00E949E0A84E061E009
:104C500040E00E949E0A85E061E040E00E949E0ADA
:104C600086E061E040E00E949E0A87E061E040E06B
:104C70000E949E0A5DC08EA5893A60F18EA5853C92
:104C800048F580E061E041E00E949E0A81E061E039
:104C900041E00E949E0A82E061E040E00E949E0A9C
:104CA00083E061E040E00E949E0A84E061E040E031
:104CB0000E949E0A85E061E040E00E949E0A86E034
:104CC00061E040E00E949E0A87E061E040E00E94CF
:104CD0009E0A2EC08EA5853C58F18EA5813E40F5DA
:104CE00080E061E040E00E949E0A81E061E040E0F7
:104CF0000E949E0A82E061E040E00E949E0A83E0FA
:104D000061E040E00E949E0A84E061E040E00E9491
:104D10009E0A85E061E040E00E949E0A86E061E034
:104D200040E00E949E0A87E061E040E00E949E0A07
:104D30008BA58B3030F083E062E041E00E949E0A58
:104D400005C083E062E040E00E949E0A81E060E0EE
:104D50000E94651F8BE690E00E94C51E8BA5882FE0
:104D600090E0A0E0B0E0BC01CD010E94EE1E82E721
:104D700090E00E94C51E82E060E00E94651F84E70B
:104D800090E00E94C51E80E090E0AAE7B4E48B8723
:104D90009C87AD87BE876B857C858D859E8520E051
:104DA00030E04AEF54E40E941F02DC01CB018F8304
:104DB0009887A987BA876F81788589859A8520E049
:104DC00030E040E85FE30E94790388232CF481E01F
:104DD00090E09E838D833FC06F81788589859A8519
:104DE00020E03FEF4FE757E40E94190318164CF5F7
:104DF0006B857C858D859E8520E030E040E251E426
:104E00000E941F02DC01CB01BC01CD010E944900C0
:104E1000DC01CB019E838D830FC088EC90E09C83E6
:104E20008B838B819C810197F1F79C838B838D8190
:104E30009E8101979E838D838D819E81009769F766
:104E400014C06F81788589859A850E944900DC01AC
:104E5000CB019E838D838D819E819A8389838981F5
:104E60009A810197F1F79A8389830E94EA1FC5CD41
:104E7000DF93CF93CDB7DEB7E4970FB6F894DEBFDC
:104E80000FBECDBF1FA61CA60E94EA1F80E090E0C7
:104E9000AAE7B4E48FA398A7A9A7BAA76FA178A59A
:104EA00089A59AA520E030E04AEF54E40E941F0251
:104EB000DC01CB018BA39CA3ADA3BEA36BA17CA102
:104EC0008DA19EA120E030E040E85FE30E947903DD
:104ED00088232CF481E090E09AA389A33FC06BA1C2
:104EE0007CA18DA19EA120E03FEF4FE757E40E94F7
:104EF000190318164CF56FA178A589A59AA520E08D
:104F000030E040E251E40E941F02DC01CB01BC0111
:104F1000CD010E944900DC01CB019AA389A30FC0F7
:104F200088EC90E098A38F8F8F8D98A10197F1F76F
:104F300098A38F8F89A19AA101979AA389A389A188
:104F40009AA1009769F714C06BA17CA18DA19EA1C5
:104F50000E944900DC01CB019AA389A389A19AA1EF
:104F60009E8F8D8F8D8D9E8D0197F1F79E8F8D8FEA
:104F700081E060E00E94651F83E890E00E94C51E0A
:104F8000CE01C4960E94BD1080E090E0A0EAB1E49A
:104F9000898F9A8FAB8FBC8F698D7A8D8B8D9C8D0D
:104FA00020E030E04AEF54E40E941F02DC01CB0114
:104FB0008D8B9E8BAF8BB88F6D897E898F89988DF5
:104FC00020E030E040E85FE30E94790388232CF47E
:104FD00081E090E09C8B8B8B3FC06D897E898F89AF
:104FE000988D20E03FEF4FE757E40E941903181611
:104FF0004CF5698D7A8D8B8D9C8D20E030E040E200
:1050000051E40E941F02DC01CB01BC01CD010E94D2
:105010004900DC01CB019C8B8B8B0FC088EC90E0AE
:105020009A8B898B89899A890197F1F79A8B898B59
:105030008B899C8901979C8B8B8B8B899C89009792
:1050400069F714C06D897E898F89988D0E94490007
:10505000DC01CB019C8B8B8B8B899C89988B8F87F8
:105060008F8598890197F1F7988B8F878CA98F3F4F
:10507000F9F082E06FA50E94651F8CA9882F90E04F
:10508000C097AA2797FDA095BA2FBC01CD010E9419
:10509000EE1E8FA5282F30E08CA9482F4053CE015B
:1050A000C096FC01E20FF31F40838FA58F5F8FA78F
:1050B0008FA5843008F464CF1BA61BA61FC08DA546
:1050C0009EA59C01220F331FC901880F991F880FCD
:1050D000991FA901480F591F8BA5282F30E0CE0139
:1050E000C096FC01E20FF31F8081882F90E0840FAF
:1050F000951F9EA78DA78BA58F5F8BA78BA584304F
:10510000F0F20E94EA1F8DA59EA5CC01A0E0B0E0C0
:10511000BC01CD010E94EE1E80E090E4ACE9B5E454
:105120008B879C87AD87BE876B857C858D859E85AB
:1051300020E030E04AEF54E40E941F02DC01CB0182
:105140008F839887A987BA876F81788589859A85A3
:1051500020E030E040E85FE30E94790388232CF4EC
:1051600081E090E09E838D833FC06F817885898543
:105170009A8520E03FEF4FE757E40E941903181685
:105180004CF56B857C858D859E8520E030E040E286
:1051900051E40E941F02DC01CB01BC01CD010E9441
:1051A0004900DC01CB019E838D830FC088EC90E029
:1051B0009C838B838B819C810197F1F79C838B83EC
:1051C0008D819E8101979E838D838D819E81009725
:1051D00069F729C06F81788589859A850E94490081
:1051E000DC01CB019E838D838D819E819A8389838F
:1051F00089819A810197F1F79A83898314C08DA5DB
:105200009EA524E0813D920729F48EEE92E00E9453
:1052100095080CC08CA58F5F8CA70E94EA1F82E9BD
:1052200090E00E94C51E8CA5833048F3E4960FB62B
:10523000F894DEBF0FBECDBFCF91DF910895629F7E
:10524000D001739FF001829FE00DF11D649FE00D7E
:10525000F11D929FF00D839FF00D749FF00D659FDF
:10526000F00D9927729FB00DE11DF91F639FB00DDE
:10527000E11DF91FBD01CF0111240895AA1BBB1B1D
:1052800051E107C0AA1FBB1FA617B70710F0A61B46
:10529000B70B881F991F5A95A9F780959095BC0167
:1052A000CD010895A1E21A2EAA1BBB1BFD010DC062
:1052B000AA1FBB1FEE1FFF1FA217B307E407F507C6
:1052C00020F0A21BB30BE40BF50B661F771F881FA2
:1052D000991F1A9469F760957095809590959B0138
:1052E000AC01BD01CF0108952F923F924F925F9282
:1052F0006F927F928F929F92AF92BF92CF92DF92E6
:10530000EF92FF920F931F93CF93DF93CDB7DEB74A
:10531000CA1BDB0B0FB6F894DEBF0FBECDBF0994DE
:105320002A88398848885F846E847D848C849B8435
:10533000AA84B984C884DF80EE80FD800C811B8143
:10534000AA81B981CE0FD11D0FB6F894DEBF0FBE72
:0A535000CDBFED010895F894FFCFE2
:10535A00534D41525420484F4D450054454D50201D
:10536A003D004300505245535320544F204C4F4761
:10537A00494E00454E5445522050415353574F52BF
:10538A00440057524F4E472050415353574F5244AF
:10539A000000000000000000003132332B343536A3
:1053AA002D3738392A30252F3D0301000204030620
:0253BA000700EA
:00000001FF
